{
  "_format": "hh-sol-artifact-1",
  "contractName": "HypERC20Collateral",
  "sourceName": "contracts/HypERC20Collateral.sol",
  "abi": [
    {
      "inputs": [
        {
          "internalType": "address",
          "name": "erc20",
          "type": "address"
        }
      ],
      "stateMutability": "nonpayable",
      "type": "constructor"
    },
    {
      "anonymous": false,
      "inputs": [
        {
          "indexed": true,
          "internalType": "uint32",
          "name": "domain",
          "type": "uint32"
        },
        {
          "indexed": false,
          "internalType": "uint256",
          "name": "gas",
          "type": "uint256"
        }
      ],
      "name": "DestinationGasSet",
      "type": "event"
    },
    {
      "anonymous": false,
      "inputs": [
        {
          "indexed": false,
          "internalType": "uint8",
          "name": "version",
          "type": "uint8"
        }
      ],
      "name": "Initialized",
      "type": "event"
    },
    {
      "anonymous": false,
      "inputs": [
        {
          "indexed": true,
          "internalType": "address",
          "name": "interchainGasPaymaster",
          "type": "address"
        }
      ],
      "name": "InterchainGasPaymasterSet",
      "type": "event"
    },
    {
      "anonymous": false,
      "inputs": [
        {
          "indexed": true,
          "internalType": "address",
          "name": "module",
          "type": "address"
        }
      ],
      "name": "InterchainSecurityModuleSet",
      "type": "event"
    },
    {
      "anonymous": false,
      "inputs": [
        {
          "indexed": true,
          "internalType": "address",
          "name": "mailbox",
          "type": "address"
        }
      ],
      "name": "MailboxSet",
      "type": "event"
    },
    {
      "anonymous": false,
      "inputs": [
        {
          "indexed": true,
          "internalType": "address",
          "name": "previousOwner",
          "type": "address"
        },
        {
          "indexed": true,
          "internalType": "address",
          "name": "newOwner",
          "type": "address"
        }
      ],
      "name": "OwnershipTransferred",
      "type": "event"
    },
    {
      "anonymous": false,
      "inputs": [
        {
          "indexed": true,
          "internalType": "uint32",
          "name": "origin",
          "type": "uint32"
        },
        {
          "indexed": true,
          "internalType": "bytes32",
          "name": "recipient",
          "type": "bytes32"
        },
        {
          "indexed": false,
          "internalType": "uint256",
          "name": "amount",
          "type": "uint256"
        }
      ],
      "name": "ReceivedTransferRemote",
      "type": "event"
    },
    {
      "anonymous": false,
      "inputs": [
        {
          "indexed": true,
          "internalType": "uint32",
          "name": "domain",
          "type": "uint32"
        },
        {
          "indexed": false,
          "internalType": "bytes32",
          "name": "router",
          "type": "bytes32"
        }
      ],
      "name": "RemoteRouterEnrolled",
      "type": "event"
    },
    {
      "anonymous": false,
      "inputs": [
        {
          "indexed": true,
          "internalType": "uint32",
          "name": "destination",
          "type": "uint32"
        },
        {
          "indexed": true,
          "internalType": "bytes32",
          "name": "recipient",
          "type": "bytes32"
        },
        {
          "indexed": false,
          "internalType": "uint256",
          "name": "amount",
          "type": "uint256"
        }
      ],
      "name": "SentTransferRemote",
      "type": "event"
    },
    {
      "inputs": [
        {
          "internalType": "address",
          "name": "_account",
          "type": "address"
        }
      ],
      "name": "balanceOf",
      "outputs": [
        {
          "internalType": "uint256",
          "name": "",
          "type": "uint256"
        }
      ],
      "stateMutability": "view",
      "type": "function"
    },
    {
      "inputs": [
        {
          "internalType": "uint32",
          "name": "",
          "type": "uint32"
        }
      ],
      "name": "destinationGas",
      "outputs": [
        {
          "internalType": "uint256",
          "name": "",
          "type": "uint256"
        }
      ],
      "stateMutability": "view",
      "type": "function"
    },
    {
      "inputs": [],
      "name": "domains",
      "outputs": [
        {
          "internalType": "uint32[]",
          "name": "",
          "type": "uint32[]"
        }
      ],
      "stateMutability": "view",
      "type": "function"
    },
    {
      "inputs": [
        {
          "internalType": "uint32",
          "name": "_domain",
          "type": "uint32"
        },
        {
          "internalType": "bytes32",
          "name": "_router",
          "type": "bytes32"
        }
      ],
      "name": "enrollRemoteRouter",
      "outputs": [],
      "stateMutability": "nonpayable",
      "type": "function"
    },
    {
      "inputs": [
        {
          "internalType": "uint32[]",
          "name": "_domains",
          "type": "uint32[]"
        },
        {
          "internalType": "bytes32[]",
          "name": "_addresses",
          "type": "bytes32[]"
        }
      ],
      "name": "enrollRemoteRouters",
      "outputs": [],
      "stateMutability": "nonpayable",
      "type": "function"
    },
    {
      "inputs": [
        {
          "internalType": "uint32",
          "name": "_origin",
          "type": "uint32"
        },
        {
          "internalType": "bytes32",
          "name": "_sender",
          "type": "bytes32"
        },
        {
          "internalType": "bytes",
          "name": "_message",
          "type": "bytes"
        }
      ],
      "name": "handle",
      "outputs": [],
      "stateMutability": "nonpayable",
      "type": "function"
    },
    {
      "inputs": [
        {
          "internalType": "address",
          "name": "_mailbox",
          "type": "address"
        },
        {
          "internalType": "address",
          "name": "_interchainGasPaymaster",
          "type": "address"
        }
      ],
      "name": "initialize",
      "outputs": [],
      "stateMutability": "nonpayable",
      "type": "function"
    },
    {
      "inputs": [],
      "name": "interchainGasPaymaster",
      "outputs": [
        {
          "internalType": "contract IInterchainGasPaymaster",
          "name": "",
          "type": "address"
        }
      ],
      "stateMutability": "view",
      "type": "function"
    },
    {
      "inputs": [],
      "name": "interchainSecurityModule",
      "outputs": [
        {
          "internalType": "contract IInterchainSecurityModule",
          "name": "",
          "type": "address"
        }
      ],
      "stateMutability": "view",
      "type": "function"
    },
    {
      "inputs": [],
      "name": "mailbox",
      "outputs": [
        {
          "internalType": "contract IMailbox",
          "name": "",
          "type": "address"
        }
      ],
      "stateMutability": "view",
      "type": "function"
    },
    {
      "inputs": [],
      "name": "owner",
      "outputs": [
        {
          "internalType": "address",
          "name": "",
          "type": "address"
        }
      ],
      "stateMutability": "view",
      "type": "function"
    },
    {
      "inputs": [
        {
          "internalType": "uint32",
          "name": "_destinationDomain",
          "type": "uint32"
        }
      ],
      "name": "quoteGasPayment",
      "outputs": [
        {
          "internalType": "uint256",
          "name": "_gasPayment",
          "type": "uint256"
        }
      ],
      "stateMutability": "view",
      "type": "function"
    },
    {
      "inputs": [],
      "name": "renounceOwnership",
      "outputs": [],
      "stateMutability": "nonpayable",
      "type": "function"
    },
    {
      "inputs": [
        {
          "internalType": "uint32",
          "name": "_domain",
          "type": "uint32"
        }
      ],
      "name": "routers",
      "outputs": [
        {
          "internalType": "bytes32",
          "name": "",
          "type": "bytes32"
        }
      ],
      "stateMutability": "view",
      "type": "function"
    },
    {
      "inputs": [
        {
          "components": [
            {
              "internalType": "uint32",
              "name": "domain",
              "type": "uint32"
            },
            {
              "internalType": "uint256",
              "name": "gas",
              "type": "uint256"
            }
          ],
          "internalType": "struct GasRouter.GasRouterConfig[]",
          "name": "gasConfigs",
          "type": "tuple[]"
        }
      ],
      "name": "setDestinationGas",
      "outputs": [],
      "stateMutability": "nonpayable",
      "type": "function"
    },
    {
      "inputs": [
        {
          "internalType": "address",
          "name": "_interchainGasPaymaster",
          "type": "address"
        }
      ],
      "name": "setInterchainGasPaymaster",
      "outputs": [],
      "stateMutability": "nonpayable",
      "type": "function"
    },
    {
      "inputs": [
        {
          "internalType": "address",
          "name": "_module",
          "type": "address"
        }
      ],
      "name": "setInterchainSecurityModule",
      "outputs": [],
      "stateMutability": "nonpayable",
      "type": "function"
    },
    {
      "inputs": [
        {
          "internalType": "address",
          "name": "_mailbox",
          "type": "address"
        }
      ],
      "name": "setMailbox",
      "outputs": [],
      "stateMutability": "nonpayable",
      "type": "function"
    },
    {
      "inputs": [
        {
          "internalType": "address",
          "name": "newOwner",
          "type": "address"
        }
      ],
      "name": "transferOwnership",
      "outputs": [],
      "stateMutability": "nonpayable",
      "type": "function"
    },
    {
      "inputs": [
        {
          "internalType": "uint32",
          "name": "_destination",
          "type": "uint32"
        },
        {
          "internalType": "bytes32",
          "name": "_recipient",
          "type": "bytes32"
        },
        {
          "internalType": "uint256",
          "name": "_amountOrId",
          "type": "uint256"
        }
      ],
      "name": "transferRemote",
      "outputs": [
        {
          "internalType": "bytes32",
          "name": "messageId",
          "type": "bytes32"
        }
      ],
      "stateMutability": "payable",
      "type": "function"
    },
    {
      "inputs": [],
      "name": "wrappedToken",
      "outputs": [
        {
          "internalType": "contract IERC20",
          "name": "",
          "type": "address"
        }
      ],
      "stateMutability": "view",
      "type": "function"
    }
  ],
  "bytecode": "0x60a06040523480156200001157600080fd5b50604051620031ed380380620031ed8339818101604052810190620000379190620000dc565b8073ffffffffffffffffffffffffffffffffffffffff1660808173ffffffffffffffffffffffffffffffffffffffff1681525050506200010e565b600080fd5b600073ffffffffffffffffffffffffffffffffffffffff82169050919050565b6000620000a48262000077565b9050919050565b620000b68162000097565b8114620000c257600080fd5b50565b600081519050620000d681620000ab565b92915050565b600060208284031215620000f557620000f462000072565b5b60006200010584828501620000c5565b91505092915050565b6080516130ae6200013f60003960008181610892015281816109f60152818161110a01526115e701526130ae6000f3fe60806040526004361061012a5760003560e01c80638da5cb5b116100ab578063de523cf31161006f578063de523cf3146103d1578063e9198bf9146103fc578063f1bd6f0a14610425578063f2ed8c531461044e578063f2fde38b1461048b578063f3c61d6b146104b45761012a565b80638da5cb5b146102fe578063996c6cc314610329578063b1bd643614610354578063b49c53a71461037d578063d5438eae146103a65761012a565b806356d5d475116100f257806356d5d4751461021457806370a082311461023d578063715018a61461027a578063775313a11461029157806381b4e8b4146102ce5761012a565b80630e72cc061461012f5780632ead72f61461015857806339bb4ad914610195578063440df4f4146101c0578063485cc955146101eb575b600080fd5b34801561013b57600080fd5b5061015660048036038101906101519190611dc8565b6104dd565b005b34801561016457600080fd5b5061017f600480360381019061017a9190611e31565b6104f1565b60405161018c9190611e77565b60405180910390f35b3480156101a157600080fd5b506101aa61053f565b6040516101b79190611ef1565b60405180910390f35b3480156101cc57600080fd5b506101d5610565565b6040516101e29190611fca565b60405180910390f35b3480156101f757600080fd5b50610212600480360381019061020d9190611fec565b610641565b005b34801561022057600080fd5b5061023b600480360381019061023691906120bd565b610783565b005b34801561024957600080fd5b50610264600480360381019061025f9190611dc8565b61088e565b604051610271919061214a565b60405180910390f35b34801561028657600080fd5b5061028f610931565b005b34801561029d57600080fd5b506102b860048036038101906102b39190611e31565b610945565b6040516102c5919061214a565b60405180910390f35b6102e860048036038101906102e39190612191565b61095d565b6040516102f59190611e77565b60405180910390f35b34801561030a57600080fd5b506103136109ca565b60405161032091906121f3565b60405180910390f35b34801561033557600080fd5b5061033e6109f4565b60405161034b919061222f565b60405180910390f35b34801561036057600080fd5b5061037b600480360381019061037691906122a0565b610a18565b005b34801561038957600080fd5b506103a4600480360381019061039f91906122ed565b610a97565b005b3480156103b257600080fd5b506103bb610aad565b6040516103c8919061234e565b60405180910390f35b3480156103dd57600080fd5b506103e6610ad3565b6040516103f3919061238a565b60405180910390f35b34801561040857600080fd5b50610423600480360381019061041e9190612451565b610af9565b005b34801561043157600080fd5b5061044c60048036038101906104479190611dc8565b610bc2565b005b34801561045a57600080fd5b5061047560048036038101906104709190611e31565b610bd6565b604051610482919061214a565b60405180910390f35b34801561049757600080fd5b506104b260048036038101906104ad9190611dc8565b610c9c565b005b3480156104c057600080fd5b506104db60048036038101906104d69190611dc8565b610d1f565b005b6104e5610d33565b6104ee81610db1565b50565b600061050d8263ffffffff166098610eb790919063ffffffff16565b156105335761052c8263ffffffff166098610eda90919063ffffffff16565b905061053a565b6000801b90505b919050565b606660009054906101000a900473ffffffffffffffffffffffffffffffffffffffff1681565b606060006105736098610efd565b905060008180549050905060008167ffffffffffffffff81111561059a576105996124d2565b5b6040519080825280602002602001820160405280156105c85781602001602082028036833780820191505090505b50905060005b82811015610637578381815481106105e9576105e8612501565b5b906000526020600020015460001c82828151811061060a57610609612501565b5b602002602001019063ffffffff16908163ffffffff1681525050808061062f9061255f565b9150506105ce565b5080935050505090565b60008060019054906101000a900460ff161590508080156106725750600160008054906101000a900460ff1660ff16105b8061069f575061068130610f13565b15801561069e5750600160008054906101000a900460ff1660ff16145b5b6106de576040517f08c379a00000000000000000000000000000000000000000000000000000000081526004016106d59061262a565b60405180910390fd5b60016000806101000a81548160ff021916908360ff160217905550801561071b576001600060016101000a81548160ff0219169083151502179055505b6107258383610f36565b801561077e5760008060016101000a81548160ff0219169083151502179055507f7f26b83ff96e1f2b6a682f133852f6798a09c465da95921460cefb384740249860016040516107759190612692565b60405180910390a15b505050565b606560009054906101000a900473ffffffffffffffffffffffffffffffffffffffff1673ffffffffffffffffffffffffffffffffffffffff163373ffffffffffffffffffffffffffffffffffffffff1614610813576040517f08c379a000000000000000000000000000000000000000000000000000000000815260040161080a906126f9565b60405180910390fd5b838361081f8282610f9b565b6040518060800160405280604381526020016130366043913990610879576040517f08c379a00000000000000000000000000000000000000000000000000000000081526004016108709190612798565b60405180910390fd5b5061088686868686610fb0565b505050505050565b60007f000000000000000000000000000000000000000000000000000000000000000073ffffffffffffffffffffffffffffffffffffffff166370a08231836040518263ffffffff1660e01b81526004016108e991906121f3565b602060405180830381865afa158015610906573d6000803e3d6000fd5b505050506040513d601f19601f8201168201806040525081019061092a91906127cf565b9050919050565b610939610d33565b610943600061103a565b565b60cc6020528060005260406000206000915090505481565b60008061096983611100565b90506109818561097a868685611166565b3433611195565b9150838563ffffffff167fd229aacb94204188fe8042965fa6b269c62dc5818b21238779ab64bdd17efeec856040516109ba919061214a565b60405180910390a3509392505050565b6000603360009054906101000a900473ffffffffffffffffffffffffffffffffffffffff16905090565b7f000000000000000000000000000000000000000000000000000000000000000081565b610a20610d33565b60005b82829050811015610a9257610a7e838383818110610a4457610a43612501565b5b9050604002016000016020810190610a5c9190611e31565b848484818110610a6f57610a6e612501565b5b905060400201602001356111cd565b600181610a8b91906127fc565b9050610a23565b505050565b610a9f610d33565b610aa98282611233565b5050565b606560009054906101000a900473ffffffffffffffffffffffffffffffffffffffff1681565b606760009054906101000a900473ffffffffffffffffffffffffffffffffffffffff1681565b610b01610d33565b818190508484905014610b49576040517f08c379a0000000000000000000000000000000000000000000000000000000008152600401610b409061287c565b60405180910390fd5b600084849050905060005b81811015610bba57610ba6868683818110610b7257610b71612501565b5b9050602002016020810190610b879190611e31565b858584818110610b9a57610b99612501565b5b90506020020135611233565b600181610bb391906127fc565b9050610b54565b505050505050565b610bca610d33565b610bd381611291565b50565b6000606660009054906101000a900473ffffffffffffffffffffffffffffffffffffffff1673ffffffffffffffffffffffffffffffffffffffff1663a69297938360cc60008663ffffffff1663ffffffff168152602001908152602001600020546040518363ffffffff1660e01b8152600401610c549291906128ab565b602060405180830381865afa158015610c71573d6000803e3d6000fd5b505050506040513d601f19601f82011682018060405250810190610c9591906127cf565b9050919050565b610ca4610d33565b600073ffffffffffffffffffffffffffffffffffffffff168173ffffffffffffffffffffffffffffffffffffffff1603610d13576040517f08c379a0000000000000000000000000000000000000000000000000000000008152600401610d0a90612946565b60405180910390fd5b610d1c8161103a565b50565b610d27610d33565b610d3081611362565b50565b610d3b611433565b73ffffffffffffffffffffffffffffffffffffffff16610d596109ca565b73ffffffffffffffffffffffffffffffffffffffff1614610daf576040517f08c379a0000000000000000000000000000000000000000000000000000000008152600401610da6906129b2565b60405180910390fd5b565b600073ffffffffffffffffffffffffffffffffffffffff168173ffffffffffffffffffffffffffffffffffffffff161480610df15750610df08161143b565b5b610e30576040517f08c379a0000000000000000000000000000000000000000000000000000000008152600401610e2790612a1e565b60405180910390fd5b80606760006101000a81548173ffffffffffffffffffffffffffffffffffffffff021916908373ffffffffffffffffffffffffffffffffffffffff1602179055508073ffffffffffffffffffffffffffffffffffffffff167ffec811ed4e60aebdaf7a79cad8a97196bf56e35362f039705598226d30c9d24860405160405180910390a250565b6000610ed28260001b8460000161145e90919063ffffffff16565b905092915050565b6000610ef58260001b8460000161147e90919063ffffffff16565b905092915050565b6000816000016000016000016000019050919050565b6000808273ffffffffffffffffffffffffffffffffffffffff163b119050919050565b600060019054906101000a900460ff16610f85576040517f08c379a0000000000000000000000000000000000000000000000000000000008152600401610f7c90612ab0565b60405180910390fd5b610f8e81611291565b610f97826114fa565b5050565b600081610fa7846104f1565b14905092915050565b6000610fbc838361155d565b90506000610fca8484611586565b9050366000610fd986866115b2565b91509150610ff1610fe9856115d3565b8484846115e0565b838863ffffffff167fba20947a325f450d232530e5f5fce293e7963499d5309a07cee84a269f2f15a685604051611028919061214a565b60405180910390a35050505050505050565b6000603360009054906101000a900473ffffffffffffffffffffffffffffffffffffffff16905081603360006101000a81548173ffffffffffffffffffffffffffffffffffffffff021916908373ffffffffffffffffffffffffffffffffffffffff1602179055508173ffffffffffffffffffffffffffffffffffffffff168173ffffffffffffffffffffffffffffffffffffffff167f8be0079c531659141344cd1fd0a4f28419497f9722a3daafe3b4186f6b6457e060405160405180910390a35050565b606061114f3330847f000000000000000000000000000000000000000000000000000000000000000073ffffffffffffffffffffffffffffffffffffffff16611631909392919063ffffffff16565b604051806020016040528060008152509050919050565b606083838360405160200161117d93929190612b59565b60405160208183030381529060405290509392505050565b60006111c3858560cc60008963ffffffff1663ffffffff1681526020019081526020016000205486866116ba565b9050949350505050565b8060cc60008463ffffffff1663ffffffff168152602001908152602001600020819055508163ffffffff167f90563f253ecb04527a6a7ae1a8cbe2bdc6caefb39d5f7b06a973cf5e7f8035a482604051611227919061214a565b60405180910390a25050565b61124f8263ffffffff168260986117659092919063ffffffff16565b8163ffffffff167f97fd51fef1f80c854cbd0150c248e8b2ac4ecdc97cc05e742b5f61c9f4dc6458826040516112859190611e77565b60405180910390a25050565b8061129b8161143b565b6112da576040517f08c379a00000000000000000000000000000000000000000000000000000000081526004016112d190612a1e565b60405180910390fd5b81606660006101000a81548173ffffffffffffffffffffffffffffffffffffffff021916908373ffffffffffffffffffffffffffffffffffffffff1602179055508173ffffffffffffffffffffffffffffffffffffffff167fb87f5a0bface22cde699143559fb99f990ae54eea236995fc54178af91af859f60405160405180910390a25050565b8061136c8161143b565b6113ab576040517f08c379a00000000000000000000000000000000000000000000000000000000081526004016113a290612a1e565b60405180910390fd5b81606560006101000a81548173ffffffffffffffffffffffffffffffffffffffff021916908373ffffffffffffffffffffffffffffffffffffffff1602179055508173ffffffffffffffffffffffffffffffffffffffff167f7a61e573722ff8b205c8962b59d37e7d30573f368965597a844a94872204ebd760405160405180910390a25050565b600033905090565b6000808273ffffffffffffffffffffffffffffffffffffffff163b119050919050565b6000611476828460000161178690919063ffffffff16565b905092915050565b6000808360020160008481526020019081526020016000205490506000801b811415806114b157506114b0848461145e565b5b6114f0576040517f08c379a00000000000000000000000000000000000000000000000000000000081526004016114e790612bde565b60405180910390fd5b8091505092915050565b600060019054906101000a900460ff16611549576040517f08c379a000000000000000000000000000000000000000000000000000000000815260040161154090612ab0565b60405180910390fd5b61155281611362565b61155a61179d565b50565b6000828260009060209261157393929190612c08565b9061157e9190612c5b565b905092915050565b6000828260209060409261159c93929190612c08565b906115a79190612c5b565b60001c905092915050565b366000838360409080926115c893929190612c08565b915091509250929050565b60008160001c9050919050565b61162b84847f000000000000000000000000000000000000000000000000000000000000000073ffffffffffffffffffffffffffffffffffffffff166117f69092919063ffffffff16565b50505050565b6116b4846323b872dd60e01b85858560405160240161165293929190612cba565b604051602081830303815290604052907bffffffffffffffffffffffffffffffffffffffffffffffffffffffff19166020820180517bffffffffffffffffffffffffffffffffffffffffffffffffffffffff838183161783525050505061187c565b50505050565b60006116c68686611943565b9050606660009054906101000a900473ffffffffffffffffffffffffffffffffffffffff1673ffffffffffffffffffffffffffffffffffffffff166311bf2c1884838988876040518663ffffffff1660e01b815260040161172a9493929190612cf1565b6000604051808303818588803b15801561174357600080fd5b505af1158015611757573d6000803e3d6000fd5b505050505095945050505050565b6117808260001b82856000016119fc9092919063ffffffff16565b50505050565b60006117958360000183611a37565b905092915050565b600060019054906101000a900460ff166117ec576040517f08c379a00000000000000000000000000000000000000000000000000000000081526004016117e390612ab0565b60405180910390fd5b6117f4611a5a565b565b6118778363a9059cbb60e01b8484604051602401611815929190612d36565b604051602081830303815290604052907bffffffffffffffffffffffffffffffffffffffffffffffffffffffff19166020820180517bffffffffffffffffffffffffffffffffffffffffffffffffffffffff838183161783525050505061187c565b505050565b60006118de826040518060400160405280602081526020017f5361666545524332303a206c6f772d6c6576656c2063616c6c206661696c65648152508573ffffffffffffffffffffffffffffffffffffffff16611abb9092919063ffffffff16565b905060008151111561193e57808060200190518101906118fe9190612d97565b61193d576040517f08c379a000000000000000000000000000000000000000000000000000000000815260040161193490612e36565b60405180910390fd5b5b505050565b60008061194f84611ad3565b9050606560009054906101000a900473ffffffffffffffffffffffffffffffffffffffff1673ffffffffffffffffffffffffffffffffffffffff1663fa31de018583866040518463ffffffff1660e01b81526004016119b093929190612ea0565b6020604051808303816000875af11580156119cf573d6000803e3d6000fd5b505050506040513d601f19601f820116820180604052508101906119f39190612ef3565b91505092915050565b60008184600201600085815260200190815260200160002081905550611a2e8385600001611b4790919063ffffffff16565b90509392505050565b600080836001016000848152602001908152602001600020541415905092915050565b600060019054906101000a900460ff16611aa9576040517f08c379a0000000000000000000000000000000000000000000000000000000008152600401611aa090612ab0565b60405180910390fd5b611ab9611ab4611433565b61103a565b565b6060611aca8484600085611b5e565b90509392505050565b6000611ade826104f1565b90506000801b8114156040518060800160405280604381526020016130366043913990611b41576040517f08c379a0000000000000000000000000000000000000000000000000000000008152600401611b389190612798565b60405180910390fd5b50919050565b6000611b568360000183611c2b565b905092915050565b606082471015611ba3576040517f08c379a0000000000000000000000000000000000000000000000000000000008152600401611b9a90612f92565b60405180910390fd5b6000808673ffffffffffffffffffffffffffffffffffffffff168587604051611bcc9190612fb2565b60006040518083038185875af1925050503d8060008114611c09576040519150601f19603f3d011682016040523d82523d6000602084013e611c0e565b606091505b5091509150611c1f87838387611c9b565b92505050949350505050565b6000611c378383611a37565b611c90578260000182908060018154018082558091505060019003906000526020600020016000909190919091505582600001805490508360010160008481526020019081526020016000208190555060019050611c95565b600090505b92915050565b60608315611cfd576000835103611cf557611cb58561143b565b611cf4576040517f08c379a0000000000000000000000000000000000000000000000000000000008152600401611ceb90613015565b60405180910390fd5b5b829050611d08565b611d078383611d10565b5b949350505050565b600082511115611d235781518083602001fd5b806040517f08c379a0000000000000000000000000000000000000000000000000000000008152600401611d579190612798565b60405180910390fd5b600080fd5b600080fd5b600073ffffffffffffffffffffffffffffffffffffffff82169050919050565b6000611d9582611d6a565b9050919050565b611da581611d8a565b8114611db057600080fd5b50565b600081359050611dc281611d9c565b92915050565b600060208284031215611dde57611ddd611d60565b5b6000611dec84828501611db3565b91505092915050565b600063ffffffff82169050919050565b611e0e81611df5565b8114611e1957600080fd5b50565b600081359050611e2b81611e05565b92915050565b600060208284031215611e4757611e46611d60565b5b6000611e5584828501611e1c565b91505092915050565b6000819050919050565b611e7181611e5e565b82525050565b6000602082019050611e8c6000830184611e68565b92915050565b6000819050919050565b6000611eb7611eb2611ead84611d6a565b611e92565b611d6a565b9050919050565b6000611ec982611e9c565b9050919050565b6000611edb82611ebe565b9050919050565b611eeb81611ed0565b82525050565b6000602082019050611f066000830184611ee2565b92915050565b600081519050919050565b600082825260208201905092915050565b6000819050602082019050919050565b611f4181611df5565b82525050565b6000611f538383611f38565b60208301905092915050565b6000602082019050919050565b6000611f7782611f0c565b611f818185611f17565b9350611f8c83611f28565b8060005b83811015611fbd578151611fa48882611f47565b9750611faf83611f5f565b925050600181019050611f90565b5085935050505092915050565b60006020820190508181036000830152611fe48184611f6c565b905092915050565b6000806040838503121561200357612002611d60565b5b600061201185828601611db3565b925050602061202285828601611db3565b9150509250929050565b61203581611e5e565b811461204057600080fd5b50565b6000813590506120528161202c565b92915050565b600080fd5b600080fd5b600080fd5b60008083601f84011261207d5761207c612058565b5b8235905067ffffffffffffffff81111561209a5761209961205d565b5b6020830191508360018202830111156120b6576120b5612062565b5b9250929050565b600080600080606085870312156120d7576120d6611d60565b5b60006120e587828801611e1c565b94505060206120f687828801612043565b935050604085013567ffffffffffffffff81111561211757612116611d65565b5b61212387828801612067565b925092505092959194509250565b6000819050919050565b61214481612131565b82525050565b600060208201905061215f600083018461213b565b92915050565b61216e81612131565b811461217957600080fd5b50565b60008135905061218b81612165565b92915050565b6000806000606084860312156121aa576121a9611d60565b5b60006121b886828701611e1c565b93505060206121c986828701612043565b92505060406121da8682870161217c565b9150509250925092565b6121ed81611d8a565b82525050565b600060208201905061220860008301846121e4565b92915050565b600061221982611ebe565b9050919050565b6122298161220e565b82525050565b60006020820190506122446000830184612220565b92915050565b60008083601f8401126122605761225f612058565b5b8235905067ffffffffffffffff81111561227d5761227c61205d565b5b60208301915083604082028301111561229957612298612062565b5b9250929050565b600080602083850312156122b7576122b6611d60565b5b600083013567ffffffffffffffff8111156122d5576122d4611d65565b5b6122e18582860161224a565b92509250509250929050565b6000806040838503121561230457612303611d60565b5b600061231285828601611e1c565b925050602061232385828601612043565b9150509250929050565b600061233882611ebe565b9050919050565b6123488161232d565b82525050565b6000602082019050612363600083018461233f565b92915050565b600061237482611ebe565b9050919050565b61238481612369565b82525050565b600060208201905061239f600083018461237b565b92915050565b60008083601f8401126123bb576123ba612058565b5b8235905067ffffffffffffffff8111156123d8576123d761205d565b5b6020830191508360208202830111156123f4576123f3612062565b5b9250929050565b60008083601f84011261241157612410612058565b5b8235905067ffffffffffffffff81111561242e5761242d61205d565b5b60208301915083602082028301111561244a57612449612062565b5b9250929050565b6000806000806040858703121561246b5761246a611d60565b5b600085013567ffffffffffffffff81111561248957612488611d65565b5b612495878288016123a5565b9450945050602085013567ffffffffffffffff8111156124b8576124b7611d65565b5b6124c4878288016123fb565b925092505092959194509250565b7f4e487b7100000000000000000000000000000000000000000000000000000000600052604160045260246000fd5b7f4e487b7100000000000000000000000000000000000000000000000000000000600052603260045260246000fd5b7f4e487b7100000000000000000000000000000000000000000000000000000000600052601160045260246000fd5b600061256a82612131565b91507fffffffffffffffffffffffffffffffffffffffffffffffffffffffffffffffff820361259c5761259b612530565b5b600182019050919050565b600082825260208201905092915050565b7f496e697469616c697a61626c653a20636f6e747261637420697320616c72656160008201527f647920696e697469616c697a6564000000000000000000000000000000000000602082015250565b6000612614602e836125a7565b915061261f826125b8565b604082019050919050565b6000602082019050818103600083015261264381612607565b9050919050565b6000819050919050565b600060ff82169050919050565b600061267c6126776126728461264a565b611e92565b612654565b9050919050565b61268c81612661565b82525050565b60006020820190506126a76000830184612683565b92915050565b7f216d61696c626f78000000000000000000000000000000000000000000000000600082015250565b60006126e36008836125a7565b91506126ee826126ad565b602082019050919050565b60006020820190508181036000830152612712816126d6565b9050919050565b600081519050919050565b60005b83811015612742578082015181840152602081019050612727565b60008484015250505050565b6000601f19601f8301169050919050565b600061276a82612719565b61277481856125a7565b9350612784818560208601612724565b61278d8161274e565b840191505092915050565b600060208201905081810360008301526127b2818461275f565b905092915050565b6000815190506127c981612165565b92915050565b6000602082840312156127e5576127e4611d60565b5b60006127f3848285016127ba565b91505092915050565b600061280782612131565b915061281283612131565b925082820190508082111561282a57612829612530565b5b92915050565b7f216c656e67746800000000000000000000000000000000000000000000000000600082015250565b60006128666007836125a7565b915061287182612830565b602082019050919050565b6000602082019050818103600083015261289581612859565b9050919050565b6128a581611df5565b82525050565b60006040820190506128c0600083018561289c565b6128cd602083018461213b565b9392505050565b7f4f776e61626c653a206e6577206f776e657220697320746865207a65726f206160008201527f6464726573730000000000000000000000000000000000000000000000000000602082015250565b60006129306026836125a7565b915061293b826128d4565b604082019050919050565b6000602082019050818103600083015261295f81612923565b9050919050565b7f4f776e61626c653a2063616c6c6572206973206e6f7420746865206f776e6572600082015250565b600061299c6020836125a7565b91506129a782612966565b602082019050919050565b600060208201905081810360008301526129cb8161298f565b9050919050565b7f21636f6e74726163740000000000000000000000000000000000000000000000600082015250565b6000612a086009836125a7565b9150612a13826129d2565b602082019050919050565b60006020820190508181036000830152612a37816129fb565b9050919050565b7f496e697469616c697a61626c653a20636f6e7472616374206973206e6f74206960008201527f6e697469616c697a696e67000000000000000000000000000000000000000000602082015250565b6000612a9a602b836125a7565b9150612aa582612a3e565b604082019050919050565b60006020820190508181036000830152612ac981612a8d565b9050919050565b6000819050919050565b612aeb612ae682611e5e565b612ad0565b82525050565b6000819050919050565b612b0c612b0782612131565b612af1565b82525050565b600081519050919050565b600081905092915050565b6000612b3382612b12565b612b3d8185612b1d565b9350612b4d818560208601612724565b80840191505092915050565b6000612b658286612ada565b602082019150612b758285612afb565b602082019150612b858284612b28565b9150819050949350505050565b7f456e756d657261626c654d61703a206e6f6e6578697374656e74206b65790000600082015250565b6000612bc8601e836125a7565b9150612bd382612b92565b602082019050919050565b60006020820190508181036000830152612bf781612bbb565b9050919050565b600080fd5b600080fd5b60008085851115612c1c57612c1b612bfe565b5b83861115612c2d57612c2c612c03565b5b6001850283019150848603905094509492505050565b600082905092915050565b600082821b905092915050565b6000612c678383612c43565b82612c728135611e5e565b92506020821015612cb257612cad7fffffffffffffffffffffffffffffffffffffffffffffffffffffffffffffffff83602003600802612c4e565b831692505b505092915050565b6000606082019050612ccf60008301866121e4565b612cdc60208301856121e4565b612ce9604083018461213b565b949350505050565b6000608082019050612d066000830187611e68565b612d13602083018661289c565b612d20604083018561213b565b612d2d60608301846121e4565b95945050505050565b6000604082019050612d4b60008301856121e4565b612d58602083018461213b565b9392505050565b60008115159050919050565b612d7481612d5f565b8114612d7f57600080fd5b50565b600081519050612d9181612d6b565b92915050565b600060208284031215612dad57612dac611d60565b5b6000612dbb84828501612d82565b91505092915050565b7f5361666545524332303a204552433230206f7065726174696f6e20646964206e60008201527f6f74207375636365656400000000000000000000000000000000000000000000602082015250565b6000612e20602a836125a7565b9150612e2b82612dc4565b604082019050919050565b60006020820190508181036000830152612e4f81612e13565b9050919050565b600082825260208201905092915050565b6000612e7282612b12565b612e7c8185612e56565b9350612e8c818560208601612724565b612e958161274e565b840191505092915050565b6000606082019050612eb5600083018661289c565b612ec26020830185611e68565b8181036040830152612ed48184612e67565b9050949350505050565b600081519050612eed8161202c565b92915050565b600060208284031215612f0957612f08611d60565b5b6000612f1784828501612ede565b91505092915050565b7f416464726573733a20696e73756666696369656e742062616c616e636520666f60008201527f722063616c6c0000000000000000000000000000000000000000000000000000602082015250565b6000612f7c6026836125a7565b9150612f8782612f20565b604082019050919050565b60006020820190508181036000830152612fab81612f6f565b9050919050565b6000612fbe8284612b28565b915081905092915050565b7f416464726573733a2063616c6c20746f206e6f6e2d636f6e7472616374000000600082015250565b6000612fff601d836125a7565b915061300a82612fc9565b602082019050919050565b6000602082019050818103600083015261302e81612ff2565b905091905056fe4e6f20726f7574657220656e726f6c6c656420666f7220646f6d61696e2e2044696420796f7520737065636966792074686520726967687420646f6d61696e2049443fa2646970667358221220d2ea17c803c9e7a97a8bc5fc1d3bb09a91bf3030430b5039869b9c9e848309be64736f6c63430008100033",
  "linkReferences": {},
  "deployedLinkReferences": {}
}