{
  "_format": "hh-sol-artifact-1",
  "contractName": "Gravity",
  "sourceName": "contracts/Gravity.sol",
  "abi": [
    {
      "inputs": [
        {
          "internalType": "bytes32",
          "name": "_gravityId",
          "type": "bytes32"
        },
        {
          "internalType": "address[]",
          "name": "_validators",
          "type": "address[]"
        },
        {
          "internalType": "uint256[]",
          "name": "_powers",
          "type": "uint256[]"
        }
      ],
      "stateMutability": "nonpayable",
      "type": "constructor"
    },
    {
      "inputs": [],
      "name": "BatchTimedOut",
      "type": "error"
    },
    {
      "inputs": [],
      "name": "IncorrectCheckpoint",
      "type": "error"
    },
    {
      "inputs": [
        {
          "internalType": "uint256",
          "name": "cumulativePower",
          "type": "uint256"
        },
        {
          "internalType": "uint256",
          "name": "powerThreshold",
          "type": "uint256"
        }
      ],
      "name": "InsufficientPower",
      "type": "error"
    },
    {
      "inputs": [
        {
          "internalType": "uint256",
          "name": "newNonce",
          "type": "uint256"
        },
        {
          "internalType": "uint256",
          "name": "currentNonce",
          "type": "uint256"
        }
      ],
      "name": "InvalidBatchNonce",
      "type": "error"
    },
    {
      "inputs": [],
      "name": "InvalidLogicCallFees",
      "type": "error"
    },
    {
      "inputs": [
        {
          "internalType": "uint256",
          "name": "newNonce",
          "type": "uint256"
        },
        {
          "internalType": "uint256",
          "name": "currentNonce",
          "type": "uint256"
        }
      ],
      "name": "InvalidLogicCallNonce",
      "type": "error"
    },
    {
      "inputs": [],
      "name": "InvalidLogicCallTransfers",
      "type": "error"
    },
    {
      "inputs": [],
      "name": "InvalidSendToCosmos",
      "type": "error"
    },
    {
      "inputs": [],
      "name": "InvalidSignature",
      "type": "error"
    },
    {
      "inputs": [
        {
          "internalType": "uint256",
          "name": "newNonce",
          "type": "uint256"
        },
        {
          "internalType": "uint256",
          "name": "currentNonce",
          "type": "uint256"
        }
      ],
      "name": "InvalidValsetNonce",
      "type": "error"
    },
    {
      "inputs": [],
      "name": "LogicCallTimedOut",
      "type": "error"
    },
    {
      "inputs": [],
      "name": "MalformedBatch",
      "type": "error"
    },
    {
      "inputs": [],
      "name": "MalformedCurrentValidatorSet",
      "type": "error"
    },
    {
      "inputs": [],
      "name": "MalformedNewValidatorSet",
      "type": "error"
    },
    {
      "anonymous": false,
      "inputs": [
        {
          "indexed": false,
          "internalType": "string",
          "name": "_cosmosDenom",
          "type": "string"
        },
        {
          "indexed": true,
          "internalType": "address",
          "name": "_tokenContract",
          "type": "address"
        },
        {
          "indexed": false,
          "internalType": "string",
          "name": "_name",
          "type": "string"
        },
        {
          "indexed": false,
          "internalType": "string",
          "name": "_symbol",
          "type": "string"
        },
        {
          "indexed": false,
          "internalType": "uint8",
          "name": "_decimals",
          "type": "uint8"
        },
        {
          "indexed": false,
          "internalType": "uint256",
          "name": "_eventNonce",
          "type": "uint256"
        }
      ],
      "name": "ERC20DeployedEvent",
      "type": "event"
    },
    {
      "anonymous": false,
      "inputs": [
        {
          "indexed": false,
          "internalType": "bytes32",
          "name": "_invalidationId",
          "type": "bytes32"
        },
        {
          "indexed": false,
          "internalType": "uint256",
          "name": "_invalidationNonce",
          "type": "uint256"
        },
        {
          "indexed": false,
          "internalType": "bytes",
          "name": "_returnData",
          "type": "bytes"
        },
        {
          "indexed": false,
          "internalType": "uint256",
          "name": "_eventNonce",
          "type": "uint256"
        }
      ],
      "name": "LogicCallEvent",
      "type": "event"
    },
    {
      "anonymous": false,
      "inputs": [
        {
          "indexed": true,
          "internalType": "address",
          "name": "_tokenContract",
          "type": "address"
        },
        {
          "indexed": true,
          "internalType": "address",
          "name": "_sender",
          "type": "address"
        },
        {
          "indexed": false,
          "internalType": "string",
          "name": "_destination",
          "type": "string"
        },
        {
          "indexed": false,
          "internalType": "uint256",
          "name": "_amount",
          "type": "uint256"
        },
        {
          "indexed": false,
          "internalType": "uint256",
          "name": "_eventNonce",
          "type": "uint256"
        }
      ],
      "name": "SendToCosmosEvent",
      "type": "event"
    },
    {
      "anonymous": false,
      "inputs": [
        {
          "indexed": true,
          "internalType": "uint256",
          "name": "_batchNonce",
          "type": "uint256"
        },
        {
          "indexed": true,
          "internalType": "address",
          "name": "_token",
          "type": "address"
        },
        {
          "indexed": false,
          "internalType": "uint256",
          "name": "_eventNonce",
          "type": "uint256"
        }
      ],
      "name": "TransactionBatchExecutedEvent",
      "type": "event"
    },
    {
      "anonymous": false,
      "inputs": [
        {
          "indexed": true,
          "internalType": "uint256",
          "name": "_newValsetNonce",
          "type": "uint256"
        },
        {
          "indexed": false,
          "internalType": "uint256",
          "name": "_eventNonce",
          "type": "uint256"
        },
        {
          "indexed": false,
          "internalType": "uint256",
          "name": "_rewardAmount",
          "type": "uint256"
        },
        {
          "indexed": false,
          "internalType": "address",
          "name": "_rewardToken",
          "type": "address"
        },
        {
          "indexed": false,
          "internalType": "address[]",
          "name": "_validators",
          "type": "address[]"
        },
        {
          "indexed": false,
          "internalType": "uint256[]",
          "name": "_powers",
          "type": "uint256[]"
        }
      ],
      "name": "ValsetUpdatedEvent",
      "type": "event"
    },
    {
      "inputs": [
        {
          "internalType": "string",
          "name": "_cosmosDenom",
          "type": "string"
        },
        {
          "internalType": "string",
          "name": "_name",
          "type": "string"
        },
        {
          "internalType": "string",
          "name": "_symbol",
          "type": "string"
        },
        {
          "internalType": "uint8",
          "name": "_decimals",
          "type": "uint8"
        }
      ],
      "name": "deployERC20",
      "outputs": [],
      "stateMutability": "nonpayable",
      "type": "function"
    },
    {
      "inputs": [
        {
          "internalType": "address",
          "name": "_erc20Address",
          "type": "address"
        }
      ],
      "name": "lastBatchNonce",
      "outputs": [
        {
          "internalType": "uint256",
          "name": "",
          "type": "uint256"
        }
      ],
      "stateMutability": "view",
      "type": "function"
    },
    {
      "inputs": [
        {
          "internalType": "bytes32",
          "name": "_invalidation_id",
          "type": "bytes32"
        }
      ],
      "name": "lastLogicCallNonce",
      "outputs": [
        {
          "internalType": "uint256",
          "name": "",
          "type": "uint256"
        }
      ],
      "stateMutability": "view",
      "type": "function"
    },
    {
      "inputs": [
        {
          "internalType": "address",
          "name": "_tokenContract",
          "type": "address"
        },
        {
          "internalType": "string",
          "name": "_destination",
          "type": "string"
        },
        {
          "internalType": "uint256",
          "name": "_amount",
          "type": "uint256"
        }
      ],
      "name": "sendToCosmos",
      "outputs": [],
      "stateMutability": "nonpayable",
      "type": "function"
    },
    {
      "inputs": [],
      "name": "state_gravityId",
      "outputs": [
        {
          "internalType": "bytes32",
          "name": "",
          "type": "bytes32"
        }
      ],
      "stateMutability": "view",
      "type": "function"
    },
    {
      "inputs": [
        {
          "internalType": "bytes32",
          "name": "",
          "type": "bytes32"
        }
      ],
      "name": "state_invalidationMapping",
      "outputs": [
        {
          "internalType": "uint256",
          "name": "",
          "type": "uint256"
        }
      ],
      "stateMutability": "view",
      "type": "function"
    },
    {
      "inputs": [
        {
          "internalType": "address",
          "name": "",
          "type": "address"
        }
      ],
      "name": "state_lastBatchNonces",
      "outputs": [
        {
          "internalType": "uint256",
          "name": "",
          "type": "uint256"
        }
      ],
      "stateMutability": "view",
      "type": "function"
    },
    {
      "inputs": [],
      "name": "state_lastEventNonce",
      "outputs": [
        {
          "internalType": "uint256",
          "name": "",
          "type": "uint256"
        }
      ],
      "stateMutability": "view",
      "type": "function"
    },
    {
      "inputs": [],
      "name": "state_lastValsetCheckpoint",
      "outputs": [
        {
          "internalType": "bytes32",
          "name": "",
          "type": "bytes32"
        }
      ],
      "stateMutability": "view",
      "type": "function"
    },
    {
      "inputs": [],
      "name": "state_lastValsetNonce",
      "outputs": [
        {
          "internalType": "uint256",
          "name": "",
          "type": "uint256"
        }
      ],
      "stateMutability": "view",
      "type": "function"
    },
    {
      "inputs": [
        {
          "components": [
            {
              "internalType": "address[]",
              "name": "validators",
              "type": "address[]"
            },
            {
              "internalType": "uint256[]",
              "name": "powers",
              "type": "uint256[]"
            },
            {
              "internalType": "uint256",
              "name": "valsetNonce",
              "type": "uint256"
            },
            {
              "internalType": "uint256",
              "name": "rewardAmount",
              "type": "uint256"
            },
            {
              "internalType": "address",
              "name": "rewardToken",
              "type": "address"
            }
          ],
          "internalType": "struct ValsetArgs",
          "name": "_currentValset",
          "type": "tuple"
        },
        {
          "components": [
            {
              "internalType": "uint8",
              "name": "v",
              "type": "uint8"
            },
            {
              "internalType": "bytes32",
              "name": "r",
              "type": "bytes32"
            },
            {
              "internalType": "bytes32",
              "name": "s",
              "type": "bytes32"
            }
          ],
          "internalType": "struct Signature[]",
          "name": "_sigs",
          "type": "tuple[]"
        },
        {
          "internalType": "uint256[]",
          "name": "_amounts",
          "type": "uint256[]"
        },
        {
          "internalType": "address[]",
          "name": "_destinations",
          "type": "address[]"
        },
        {
          "internalType": "uint256[]",
          "name": "_fees",
          "type": "uint256[]"
        },
        {
          "internalType": "uint256",
          "name": "_batchNonce",
          "type": "uint256"
        },
        {
          "internalType": "address",
          "name": "_tokenContract",
          "type": "address"
        },
        {
          "internalType": "uint256",
          "name": "_batchTimeout",
          "type": "uint256"
        }
      ],
      "name": "submitBatch",
      "outputs": [],
      "stateMutability": "nonpayable",
      "type": "function"
    },
    {
      "inputs": [
        {
          "components": [
            {
              "internalType": "address[]",
              "name": "validators",
              "type": "address[]"
            },
            {
              "internalType": "uint256[]",
              "name": "powers",
              "type": "uint256[]"
            },
            {
              "internalType": "uint256",
              "name": "valsetNonce",
              "type": "uint256"
            },
            {
              "internalType": "uint256",
              "name": "rewardAmount",
              "type": "uint256"
            },
            {
              "internalType": "address",
              "name": "rewardToken",
              "type": "address"
            }
          ],
          "internalType": "struct ValsetArgs",
          "name": "_currentValset",
          "type": "tuple"
        },
        {
          "components": [
            {
              "internalType": "uint8",
              "name": "v",
              "type": "uint8"
            },
            {
              "internalType": "bytes32",
              "name": "r",
              "type": "bytes32"
            },
            {
              "internalType": "bytes32",
              "name": "s",
              "type": "bytes32"
            }
          ],
          "internalType": "struct Signature[]",
          "name": "_sigs",
          "type": "tuple[]"
        },
        {
          "components": [
            {
              "internalType": "uint256[]",
              "name": "transferAmounts",
              "type": "uint256[]"
            },
            {
              "internalType": "address[]",
              "name": "transferTokenContracts",
              "type": "address[]"
            },
            {
              "internalType": "uint256[]",
              "name": "feeAmounts",
              "type": "uint256[]"
            },
            {
              "internalType": "address[]",
              "name": "feeTokenContracts",
              "type": "address[]"
            },
            {
              "internalType": "address",
              "name": "logicContractAddress",
              "type": "address"
            },
            {
              "internalType": "bytes",
              "name": "payload",
              "type": "bytes"
            },
            {
              "internalType": "uint256",
              "name": "timeOut",
              "type": "uint256"
            },
            {
              "internalType": "bytes32",
              "name": "invalidationId",
              "type": "bytes32"
            },
            {
              "internalType": "uint256",
              "name": "invalidationNonce",
              "type": "uint256"
            }
          ],
          "internalType": "struct LogicCallArgs",
          "name": "_args",
          "type": "tuple"
        }
      ],
      "name": "submitLogicCall",
      "outputs": [],
      "stateMutability": "nonpayable",
      "type": "function"
    },
    {
      "inputs": [
        {
          "components": [
            {
              "internalType": "address[]",
              "name": "validators",
              "type": "address[]"
            },
            {
              "internalType": "uint256[]",
              "name": "powers",
              "type": "uint256[]"
            },
            {
              "internalType": "uint256",
              "name": "valsetNonce",
              "type": "uint256"
            },
            {
              "internalType": "uint256",
              "name": "rewardAmount",
              "type": "uint256"
            },
            {
              "internalType": "address",
              "name": "rewardToken",
              "type": "address"
            }
          ],
          "internalType": "struct ValsetArgs",
          "name": "_currentValset",
          "type": "tuple"
        },
        {
          "components": [
            {
              "internalType": "uint8",
              "name": "v",
              "type": "uint8"
            },
            {
              "internalType": "bytes32",
              "name": "r",
              "type": "bytes32"
            },
            {
              "internalType": "bytes32",
              "name": "s",
              "type": "bytes32"
            }
          ],
          "internalType": "struct Signature[]",
          "name": "_sigs",
          "type": "tuple[]"
        },
        {
          "internalType": "bytes32",
          "name": "_theHash",
          "type": "bytes32"
        },
        {
          "internalType": "uint256",
          "name": "_powerThreshold",
          "type": "uint256"
        }
      ],
      "name": "testCheckValidatorSignatures",
      "outputs": [],
      "stateMutability": "pure",
      "type": "function"
    },
    {
      "inputs": [
        {
          "components": [
            {
              "internalType": "address[]",
              "name": "validators",
              "type": "address[]"
            },
            {
              "internalType": "uint256[]",
              "name": "powers",
              "type": "uint256[]"
            },
            {
              "internalType": "uint256",
              "name": "valsetNonce",
              "type": "uint256"
            },
            {
              "internalType": "uint256",
              "name": "rewardAmount",
              "type": "uint256"
            },
            {
              "internalType": "address",
              "name": "rewardToken",
              "type": "address"
            }
          ],
          "internalType": "struct ValsetArgs",
          "name": "_valsetArgs",
          "type": "tuple"
        },
        {
          "internalType": "bytes32",
          "name": "_gravityId",
          "type": "bytes32"
        }
      ],
      "name": "testMakeCheckpoint",
      "outputs": [],
      "stateMutability": "pure",
      "type": "function"
    },
    {
      "inputs": [
        {
          "components": [
            {
              "internalType": "address[]",
              "name": "validators",
              "type": "address[]"
            },
            {
              "internalType": "uint256[]",
              "name": "powers",
              "type": "uint256[]"
            },
            {
              "internalType": "uint256",
              "name": "valsetNonce",
              "type": "uint256"
            },
            {
              "internalType": "uint256",
              "name": "rewardAmount",
              "type": "uint256"
            },
            {
              "internalType": "address",
              "name": "rewardToken",
              "type": "address"
            }
          ],
          "internalType": "struct ValsetArgs",
          "name": "_newValset",
          "type": "tuple"
        },
        {
          "components": [
            {
              "internalType": "address[]",
              "name": "validators",
              "type": "address[]"
            },
            {
              "internalType": "uint256[]",
              "name": "powers",
              "type": "uint256[]"
            },
            {
              "internalType": "uint256",
              "name": "valsetNonce",
              "type": "uint256"
            },
            {
              "internalType": "uint256",
              "name": "rewardAmount",
              "type": "uint256"
            },
            {
              "internalType": "address",
              "name": "rewardToken",
              "type": "address"
            }
          ],
          "internalType": "struct ValsetArgs",
          "name": "_currentValset",
          "type": "tuple"
        },
        {
          "components": [
            {
              "internalType": "uint8",
              "name": "v",
              "type": "uint8"
            },
            {
              "internalType": "bytes32",
              "name": "r",
              "type": "bytes32"
            },
            {
              "internalType": "bytes32",
              "name": "s",
              "type": "bytes32"
            }
          ],
          "internalType": "struct Signature[]",
          "name": "_sigs",
          "type": "tuple[]"
        }
      ],
      "name": "updateValset",
      "outputs": [],
      "stateMutability": "nonpayable",
      "type": "function"
    }
  ],
  "bytecode": "0x60a0604052600060045560016005553480156200001b57600080fd5b5060405162003ab938038062003ab98339810160408190526200003e916200032f565b6001600055805182511415806200005457508151155b15620000735760405163c6617b7b60e01b815260040160405180910390fd5b6000805b8251811015620000d55782818151811062000096576200009662000418565b602002602001015182620000ab919062000444565b915063aaaaaaaa821115620000c057620000d5565b80620000cc816200045f565b91505062000077565b5063aaaaaaaa81116200010b5760405162bfb6ab60e01b81526004810182905263aaaaaaaa602482015260440160405180910390fd5b620001476040518060a001604052806060815260200160608152602001600081526020016000815260200160006001600160a01b031681525090565b506040805160a0810182528481526020810184905260009181018290526060810182905260808101829052906200017f8287620001e1565b6080879052600181905560045460055460405192935090917f76d08978c024a4bf8cbb30c67fd78fcaa1827cbc533e4e175f36d07e64ccf96a91620001cd9160009081908b908b90620004f5565b60405180910390a2505050505050620005a4565b6000806918da1958dadc1bda5b9d60b21b60001b90506000838286604001518760000151886020015189606001518a608001516040516020016200022c979695949392919062000544565b60408051808303601f19018152919052805160209091012095945050505050565b634e487b7160e01b600052604160045260246000fd5b604051601f8201601f191681016001600160401b03811182821017156200028e576200028e6200024d565b604052919050565b60006001600160401b03821115620002b257620002b26200024d565b5060051b60200190565b600082601f830112620002ce57600080fd5b81516020620002e7620002e18362000296565b62000263565b82815260059290921b840181019181810190868411156200030757600080fd5b8286015b848110156200032457805183529183019183016200030b565b509695505050505050565b6000806000606084860312156200034557600080fd5b8351602080860151919450906001600160401b03808211156200036757600080fd5b818701915087601f8301126200037c57600080fd5b81516200038d620002e18262000296565b81815260059190911b8301840190848101908a831115620003ad57600080fd5b938501935b82851015620003e45784516001600160a01b0381168114620003d45760008081fd5b82529385019390850190620003b2565b60408a01519097509450505080831115620003fe57600080fd5b50506200040e86828701620002bc565b9150509250925092565b634e487b7160e01b600052603260045260246000fd5b634e487b7160e01b600052601160045260246000fd5b600082198211156200045a576200045a6200042e565b500190565b60006000198214156200047657620004766200042e565b5060010190565b600081518084526020808501945080840160005b83811015620004b85781516001600160a01b03168752958201959082019060010162000491565b509495945050505050565b600081518084526020808501945080840160005b83811015620004b857815187529582019590820190600101620004d7565b85815284602082015260018060a01b038416604082015260a0606082015260006200052460a08301856200047d565b8281036080840152620005388185620004c3565b98975050505050505050565b87815286602082015285604082015260e0606082015260006200056b60e08301876200047d565b82810360808401526200057f8187620004c3565b60a084019590955250506001600160a01b039190911660c09091015295945050505050565b6080516134e4620005d5600039600081816102140152818161055e015281816105f901526109b501526134e46000f3fe60806040523480156200001157600080fd5b5060043610620001085760003560e01c80638690ff9811620000a3578063c9d194d5116200006e578063c9d194d51462000236578063df97174b1462000259578063f2b53307146200027c578063f7955637146200028657600080fd5b80638690ff9814620001d6578063aca6b1c114620001ed578063b56561fe1462000204578063bdda81d4146200020e57600080fd5b80630f21235711620000e45780630f212357146200017b5780636941db93146200019257806373b2054714620001a95780637dfb6f8614620001b357600080fd5b8062901153146200010d578063010315251462000126578063011b2174146200013d575b600080fd5b620001246200011e36600462001893565b6200029d565b005b620001246200013736600462001914565b620002b3565b620001696200014e36600462001979565b6001600160a01b031660009081526002602052604090205490565b60405190815260200160405180910390f35b620001246200018c366004620019db565b620002ce565b62000124620001a336600462001c29565b62000490565b6200016960055481565b62000169620001c436600462001dc5565b60036020526000908152604090205481565b62000124620001e736600462001e26565b62000825565b62000124620001fe36600462001f5f565b62000b7a565b6200016960045481565b620001697f000000000000000000000000000000000000000000000000000000000000000081565b620001696200024736600462001dc5565b60009081526003602052604090205490565b620001696200026a36600462001979565b60026020526000908152604090205481565b6200016960015481565b620001246200029736600462002005565b62000e69565b620002ac858585858562000f21565b5050505050565b620002c9620002c283620020bb565b826200107b565b505050565b60026000541415620002fd5760405162461bcd60e51b8152600401620002f49062002171565b60405180910390fd5b600260009081556040516370a0823160e01b81523060048201526001600160a01b038616906370a0823190602401602060405180830381865afa15801562000349573d6000803e3d6000fd5b505050506040513d601f19601f820116820180604052508101906200036f9190620021a8565b9050620003886001600160a01b038616333085620010e7565b6040516370a0823160e01b81523060048201526000906001600160a01b038716906370a0823190602401602060405180830381865afa158015620003d0573d6000803e3d6000fd5b505050506040513d601f19601f82011682018060405250810190620003f69190620021a8565b905081811162000419576040516321739d9b60e01b815260040160405180910390fd5b60055462000429906001620021d8565b600555336001600160a01b0387167f9e9794dbf94b0a0aa31a480f5b38550eda7f89115ac8fbf4953fa4dd219900c98787620004668787620021f3565b6005546040516200047b949392919062002236565b60405180910390a35050600160005550505050565b60026000541415620004b65760405162461bcd60e51b8152600401620002f49062002171565b600260005560c08101514310620004e05760405163bcf37c2560e01b815260040160405180910390fd5b61010081015160e0820151600090815260036020526040902054106200053d5761010081015160e082015160009081526003602052604090819020549051629427e960e11b815260048101929092526024820152604401620002f4565b6200054a8484846200115a565b600154620005836200055c86620020bb565b7f00000000000000000000000000000000000000000000000000000000000000006200107b565b14620005a25760405163723a340360e01b815260040160405180910390fd5b60208101515181515114620005ca57604051634298a95160e11b815260040160405180910390fd5b80606001515181604001515114620005f557604051634829247960e01b815260040160405180910390fd5b60007f0000000000000000000000000000000000000000000000000000000000000000681b1bd9da58d0d85b1b60ba1b836000015184602001518560400151866060015187608001518860a001518960c001518a60e001518b61010001516040516020016200066f9b9a9998979695949392919062002334565b6040516020818303038152906040528051906020012090506200069a8585858463aaaaaaaa62000f21565b5061010081015160e08201516000908152600360205260408120919091555b8151518110156200073d5762000728826080015183600001518381518110620006e657620006e6620023e4565b602002602001015184602001518481518110620007075762000707620023e4565b60200260200101516001600160a01b0316620011b39092919063ffffffff16565b806200073481620023fa565b915050620006b9565b5060006200075482608001518360a00151620011e5565b905060005b826040015151811015620007bb57620007a63384604001518381518110620007855762000785620023e4565b602002602001015185606001518481518110620007075762000707620023e4565b80620007b281620023fa565b91505062000759565b50600554620007cc906001620021d8565b600581905560e08301516101008401516040517f7c2bb24f8e1b3725cb613d7f11ef97d9745cc97a0e40f730621c052d684077a1936200081193929186919062002418565b60405180910390a150506001600055505050565b600260005414156200084b5760405162461bcd60e51b8152600401620002f49062002171565b600260008181556001600160a01b038416815260209190915260409020548311620008af576001600160a01b0382166000908152600260205260409081902054905163f7f920ad60e01b8152620002f4918591600401918252602082015260400190565b6001600160a01b038216600090815260026020526040902054620008d790620f4240620021d8565b8311156200091e576001600160a01b0382166000908152600260205260409081902054905163f7f920ad60e01b8152620002f4918591600401918252602082015260400190565b8043106200093f576040516308b9266360e11b815260040160405180910390fd5b6200094c8c8c8c6200115a565b6001546200095e6200055c8e620020bb565b146200097d5760405163723a340360e01b815260040160405180910390fd5b87861415806200098d5750878414155b15620009ac5760405163c1f97e3560e01b815260040160405180910390fd5b62000a2e8c8c8c7f00000000000000000000000000000000000000000000000000000000000000006f0e8e4c2dce6c2c6e8d2dedc84c2e8c6d60831b8e8e8e8e8e8e8e8e8e60405160200162000a0d9b9a99989796959493929190620024c1565b6040516020818303038152906040528051906020012063aaaaaaaa62000f21565b6001600160a01b0382166000908152600260205260408120849055805b8981101562000afa5762000aba89898381811062000a6d5762000a6d620023e4565b905060200201602081019062000a84919062001979565b8c8c8481811062000a995762000a99620023e4565b90506020020135866001600160a01b0316620011b39092919063ffffffff16565b86868281811062000acf5762000acf620023e4565b905060200201358262000ae39190620021d8565b91508062000af181620023fa565b91505062000a4b565b5062000b116001600160a01b0384163383620011b3565b5060055462000b22906001620021d8565b60058190556040519081526001600160a01b0383169084907f02c7e81975f8edb86e2a0c038b7b86a49c744236abf0f6177ff5afc6986ab7089060200160405180910390a35050600160005550505050505050505050565b826040013584604001351162000bb3576040805163e0e8edf360e01b8152818601356004820152908401356024820152604401620002f4565b62000bc66040840135620f4240620021d8565b8460400135111562000bfb576040805163e0e8edf360e01b8152818601356004820152908401356024820152604401620002f4565b62000c0a60208501856200253f565b905062000c1885806200253f565b905014158062000c33575062000c2f84806200253f565b1590505b1562000c525760405163c01ba0ab60e01b815260040160405180910390fd5b62000c5f8383836200115a565b6000805b62000c7260208701876200253f565b905081101562000cdc5762000c8b60208701876200253f565b8281811062000c9e5762000c9e620023e4565b905060200201358262000cb29190620021d8565b915063aaaaaaaa82111562000cc75762000cdc565b8062000cd381620023fa565b91505062000c63565b5063aaaaaaaa811162000d0f5760405162bfb6ab60e01b81526004810182905263aaaaaaaa6024820152604401620002f4565b60015462000d216200055c86620020bb565b1462000d405760405163723a340360e01b815260040160405180910390fd5b600062000d516200055c87620020bb565b905062000d668585858463aaaaaaaa62000f21565b60018190556040860135600455600062000d8760a088016080890162001979565b6001600160a01b03161415801562000da25750606086013515155b1562000dd55762000dd533606088013562000dc460a08a0160808b0162001979565b6001600160a01b03169190620011b3565b60055462000de5906001620021d8565b60058190556040870135907f76d08978c024a4bf8cbb30c67fd78fcaa1827cbc533e4e175f36d07e64ccf96a90606089013562000e2960a08b0160808c0162001979565b62000e358b806200253f565b62000e4460208e018e6200253f565b60405162000e5997969594939291906200258b565b60405180910390a2505050505050565b600030868686868660405162000e7f906200181e565b62000e9096959493929190620025de565b604051809103906000f08015801562000ead573d6000803e3d6000fd5b509050600554600162000ec19190620021d8565b60058190556040516001600160a01b038316917f82fe3a4fa49c6382d0c085746698ddbbafe6c2bf61285b19410644b5b26287c79162000f0f918c918c918c918c918c918c918c9162002631565b60405180910390a25050505050505050565b6000805b62000f3187806200253f565b9050811015620010475785858281811062000f505762000f50620023e4565b62000f6892602060609092020190810191506200268e565b60ff1615620010325762000fcd62000f8188806200253f565b8381811062000f945762000f94620023e4565b905060200201602081019062000fab919062001979565b8588888581811062000fc15762000fc1620023e4565b90506060020162001230565b62000feb57604051638baa579f60e01b815260040160405180910390fd5b62000ffa60208801886200253f565b828181106200100d576200100d620023e4565b9050602002013582620010219190620021d8565b915082821115620010325762001047565b806200103e81620023fa565b91505062000f25565b50818111620010735760405162bfb6ab60e01b81526004810182905260248101839052604401620002f4565b505050505050565b6000806918da1958dadc1bda5b9d60b21b60001b90506000838286604001518760000151886020015189606001518a60800151604051602001620010c69796959493929190620026ac565b60408051808303601f19018152919052805160209091012095945050505050565b6040516001600160a01b0380851660248301528316604482015260648101829052620011549085906323b872dd60e01b906084015b60408051601f198184030181529190526020810180516001600160e01b03166001600160e01b031990931692909217909152620012c5565b50505050565b6200116960208401846200253f565b90506200117784806200253f565b9050141580620011945750806200118f84806200253f565b905014155b15620002c95760405163c6617b7b60e01b815260040160405180910390fd5b6040516001600160a01b038316602482015260448101829052620002c990849063a9059cbb60e01b906064016200111c565b60606200122983836040518060400160405280601e81526020017f416464726573733a206c6f772d6c6576656c2063616c6c206661696c656400008152506200139e565b9392505050565b6040517f19457468657265756d205369676e6564204d6573736167653a0a3332000000006020820152603c81018390526000908190605c0160408051601f1981840301815291905280516020918201209150620012a790829062001297908601866200268e565b85602001358660400135620013b7565b6001600160a01b0316856001600160a01b0316149150509392505050565b60006200131c826040518060400160405280602081526020017f5361666545524332303a206c6f772d6c6576656c2063616c6c206661696c6564815250856001600160a01b03166200139e9092919063ffffffff16565b805190915015620002c957808060200190518101906200133d91906200270c565b620002c95760405162461bcd60e51b815260206004820152602a60248201527f5361666545524332303a204552433230206f7065726174696f6e20646964206e6044820152691bdd081cdd58d8d9595960b21b6064820152608401620002f4565b6060620013af8484600085620013e3565b949350505050565b6000806000620013ca8787878762001515565b91509150620013d9816200160a565b5095945050505050565b606082471015620014465760405162461bcd60e51b815260206004820152602660248201527f416464726573733a20696e73756666696369656e742062616c616e636520666f6044820152651c8818d85b1b60d21b6064820152608401620002f4565b843b620014965760405162461bcd60e51b815260206004820152601d60248201527f416464726573733a2063616c6c20746f206e6f6e2d636f6e74726163740000006044820152606401620002f4565b600080866001600160a01b03168587604051620014b4919062002730565b60006040518083038185875af1925050503d8060008114620014f3576040519150601f19603f3d011682016040523d82523d6000602084013e620014f8565b606091505b50915091506200150a828286620017e0565b979650505050505050565b6000807f7fffffffffffffffffffffffffffffff5d576e7357a4501ddfe92f46681b20a08311156200154e575060009050600362001601565b8460ff16601b141580156200156757508460ff16601c14155b156200157a575060009050600462001601565b6040805160008082526020820180845289905260ff881692820192909252606081018690526080810185905260019060a0016020604051602081039080840390855afa158015620015cf573d6000803e3d6000fd5b5050604051601f1901519150506001600160a01b038116620015fa5760006001925092505062001601565b9150600090505b94509492505050565b60008160048111156200162157620016216200274e565b14156200162b5750565b60018160048111156200164257620016426200274e565b1415620016925760405162461bcd60e51b815260206004820152601860248201527f45434453413a20696e76616c6964207369676e617475726500000000000000006044820152606401620002f4565b6002816004811115620016a957620016a96200274e565b1415620016f95760405162461bcd60e51b815260206004820152601f60248201527f45434453413a20696e76616c6964207369676e6174757265206c656e677468006044820152606401620002f4565b60038160048111156200171057620017106200274e565b14156200176b5760405162461bcd60e51b815260206004820152602260248201527f45434453413a20696e76616c6964207369676e6174757265202773272076616c604482015261756560f01b6064820152608401620002f4565b60048160048111156200178257620017826200274e565b1415620017dd5760405162461bcd60e51b815260206004820152602260248201527f45434453413a20696e76616c6964207369676e6174757265202776272076616c604482015261756560f01b6064820152608401620002f4565b50565b60608315620017f157508162001229565b825115620018025782518084602001fd5b8160405162461bcd60e51b8152600401620002f4919062002764565b610d35806200277a83390190565b600060a082840312156200183f57600080fd5b50919050565b60008083601f8401126200185857600080fd5b5081356001600160401b038111156200187057600080fd5b6020830191508360206060830285010111156200188c57600080fd5b9250929050565b600080600080600060808688031215620018ac57600080fd5b85356001600160401b0380821115620018c457600080fd5b620018d289838a016200182c565b96506020880135915080821115620018e957600080fd5b50620018f88882890162001845565b9699909850959660408101359660609091013595509350505050565b600080604083850312156200192857600080fd5b82356001600160401b038111156200193f57600080fd5b6200194d858286016200182c565b95602094909401359450505050565b80356001600160a01b03811681146200197457600080fd5b919050565b6000602082840312156200198c57600080fd5b62001229826200195c565b60008083601f840112620019aa57600080fd5b5081356001600160401b03811115620019c257600080fd5b6020830191508360208285010111156200188c57600080fd5b60008060008060608587031215620019f257600080fd5b620019fd856200195c565b935060208501356001600160401b0381111562001a1957600080fd5b62001a278782880162001997565b9598909750949560400135949350505050565b634e487b7160e01b600052604160045260246000fd5b60405161012081016001600160401b038111828210171562001a765762001a7662001a3a565b60405290565b604051601f8201601f191681016001600160401b038111828210171562001aa75762001aa762001a3a565b604052919050565b60006001600160401b0382111562001acb5762001acb62001a3a565b5060051b60200190565b600082601f83011262001ae757600080fd5b8135602062001b0062001afa8362001aaf565b62001a7c565b82815260059290921b8401810191818101908684111562001b2057600080fd5b8286015b8481101562001b3d578035835291830191830162001b24565b509695505050505050565b600082601f83011262001b5a57600080fd5b8135602062001b6d62001afa8362001aaf565b82815260059290921b8401810191818101908684111562001b8d57600080fd5b8286015b8481101562001b3d5762001ba5816200195c565b835291830191830162001b91565b600082601f83011262001bc557600080fd5b81356001600160401b0381111562001be15762001be162001a3a565b62001bf6601f8201601f191660200162001a7c565b81815284602083860101111562001c0c57600080fd5b816020850160208301376000918101602001919091529392505050565b6000806000806060858703121562001c4057600080fd5b84356001600160401b038082111562001c5857600080fd5b62001c66888389016200182c565b9550602087013591508082111562001c7d57600080fd5b62001c8b8883890162001845565b9095509350604087013591508082111562001ca557600080fd5b90860190610120828903121562001cbb57600080fd5b62001cc562001a50565b82358281111562001cd557600080fd5b62001ce38a82860162001ad5565b82525060208301358281111562001cf957600080fd5b62001d078a82860162001b48565b60208301525060408301358281111562001d2057600080fd5b62001d2e8a82860162001ad5565b60408301525060608301358281111562001d4757600080fd5b62001d558a82860162001b48565b60608301525062001d69608084016200195c565b608082015260a08301358281111562001d8157600080fd5b62001d8f8a82860162001bb3565b60a08301525060c083013560c082015260e083013560e08201526101009150818301358282015280935050505092959194509250565b60006020828403121562001dd857600080fd5b5035919050565b60008083601f84011262001df257600080fd5b5081356001600160401b0381111562001e0a57600080fd5b6020830191508360208260051b85010111156200188c57600080fd5b6000806000806000806000806000806000806101008d8f03121562001e4a57600080fd5b6001600160401b038d35111562001e6057600080fd5b62001e6f8e8e358f016200182c565b9b506001600160401b0360208e0135111562001e8a57600080fd5b62001e9c8e60208f01358f0162001845565b909b5099506001600160401b0360408e0135111562001eba57600080fd5b62001ecc8e60408f01358f0162001ddf565b90995097506001600160401b0360608e0135111562001eea57600080fd5b62001efc8e60608f01358f0162001ddf565b90975095506001600160401b0360808e0135111562001f1a57600080fd5b62001f2c8e60808f01358f0162001ddf565b909550935060a08d0135925062001f4660c08e016200195c565b915060e08d013590509295989b509295989b509295989b565b6000806000806060858703121562001f7657600080fd5b84356001600160401b038082111562001f8e57600080fd5b62001f9c888389016200182c565b9550602087013591508082111562001fb357600080fd5b62001fc1888389016200182c565b9450604087013591508082111562001fd857600080fd5b5062001fe78782880162001845565b95989497509550505050565b803560ff811681146200197457600080fd5b60008060008060008060006080888a0312156200202157600080fd5b87356001600160401b03808211156200203957600080fd5b620020478b838c0162001997565b909950975060208a01359150808211156200206157600080fd5b6200206f8b838c0162001997565b909750955060408a01359150808211156200208957600080fd5b50620020988a828b0162001997565b9094509250620020ad90506060890162001ff3565b905092959891949750929550565b600060a08236031215620020ce57600080fd5b60405160a081016001600160401b038282108183111715620020f457620020f462001a3a565b8160405284359150808211156200210a57600080fd5b620021183683870162001b48565b835260208501359150808211156200212f57600080fd5b506200213e3682860162001ad5565b602083015250604083013560408201526060830135606082015262002166608084016200195c565b608082015292915050565b6020808252601f908201527f5265656e7472616e637947756172643a207265656e7472616e742063616c6c00604082015260600190565b600060208284031215620021bb57600080fd5b5051919050565b634e487b7160e01b600052601160045260246000fd5b60008219821115620021ee57620021ee620021c2565b500190565b600082821015620022085762002208620021c2565b500390565b81835281816020850137506000828201602090810191909152601f909101601f19169091010190565b6060815260006200224c6060830186886200220d565b6020830194909452506040015292915050565b600081518084526020808501945080840160005b83811015620022915781518752958201959082019060010162002273565b509495945050505050565b600081518084526020808501945080840160005b83811015620022915781516001600160a01b031687529582019590820190600101620022b0565b60005b83811015620022f4578181015183820152602001620022da565b83811115620011545750506000910152565b6000815180845262002320816020860160208601620022d7565b601f01601f19169290920160200192915050565b60006101608d83528c6020840152806040840152620023568184018d6200225f565b905082810360608401526200236c818c6200229c565b9050828103608084015262002382818b6200225f565b905082810360a084015262002398818a6200229c565b6001600160a01b03891660c085015283810360e08501529050620023bd818862002306565b61010084019690965250506101208101929092526101409091015298975050505050505050565b634e487b7160e01b600052603260045260246000fd5b6000600019821415620024115762002411620021c2565b5060010190565b84815283602082015260806040820152600062002439608083018562002306565b905082606083015295945050505050565b81835260006001600160fb1b038311156200246457600080fd5b8260051b8083602087013760009401602001938452509192915050565b8183526000602080850194508260005b8581101562002291576001600160a01b03620024ad836200195c565b168752958201959082019060010162002491565b60006101008d83528c6020840152806040840152620024e48184018c8e6200244a565b90508281036060840152620024fb818a8c62002481565b905082810360808401526200251281888a6200244a565b60a084019690965250506001600160a01b039290921660c083015260e09091015298975050505050505050565b6000808335601e198436030181126200255757600080fd5b8301803591506001600160401b038211156200257257600080fd5b6020019150600581901b36038213156200188c57600080fd5b87815286602082015260018060a01b038616604082015260a060608201526000620025bb60a08301868862002481565b8281036080840152620025d08185876200244a565b9a9950505050505050505050565b6001600160a01b03871681526080602082018190526000906200260590830187896200220d565b82810360408401526200261a8186886200220d565b91505060ff83166060830152979650505050505050565b60a0815260006200264760a083018a8c6200220d565b82810360208401526200265c81898b6200220d565b90508281036040840152620026738187896200220d565b60ff9590951660608401525050608001529695505050505050565b600060208284031215620026a157600080fd5b620012298262001ff3565b87815286602082015285604082015260e060608201526000620026d360e08301876200229c565b8281036080840152620026e781876200225f565b60a084019590955250506001600160a01b039190911660c09091015295945050505050565b6000602082840312156200271f57600080fd5b815180151581146200122957600080fd5b6000825162002744818460208701620022d7565b9190910192915050565b634e487b7160e01b600052602160045260246000fd5b6020815260006200122960208301846200230656fe60806040523480156200001157600080fd5b5060405162000d3538038062000d358339810160408190526200003491620002ff565b8251839083906200004d9060039060208501906200018c565b508051620000639060049060208401906200018c565b5050600580546001600160a01b038716610100026001600160a81b031990911660ff851617179055506200009a84600019620000a4565b5050505062000407565b6001600160a01b038216620000ff5760405162461bcd60e51b815260206004820152601f60248201527f45524332303a206d696e7420746f20746865207a65726f206164647265737300604482015260640160405180910390fd5b8060026000828254620001139190620003a3565b90915550506001600160a01b0382166000908152602081905260408120805483929062000142908490620003a3565b90915550506040518181526001600160a01b038316906000907fddf252ad1be2c89b69c2b068fc378daa952ba7f163c4a11628f55a4df523b3ef9060200160405180910390a35050565b8280546200019a90620003ca565b90600052602060002090601f016020900481019282620001be576000855562000209565b82601f10620001d957805160ff191683800117855562000209565b8280016001018555821562000209579182015b8281111562000209578251825591602001919060010190620001ec565b50620002179291506200021b565b5090565b5b808211156200021757600081556001016200021c565b634e487b7160e01b600052604160045260246000fd5b600082601f8301126200025a57600080fd5b81516001600160401b038082111562000277576200027762000232565b604051601f8301601f19908116603f01168101908282118183101715620002a257620002a262000232565b81604052838152602092508683858801011115620002bf57600080fd5b600091505b83821015620002e35785820183015181830184015290820190620002c4565b83821115620002f55760008385830101525b9695505050505050565b600080600080608085870312156200031657600080fd5b84516001600160a01b03811681146200032e57600080fd5b60208601519094506001600160401b03808211156200034c57600080fd5b6200035a8883890162000248565b945060408701519150808211156200037157600080fd5b50620003808782880162000248565b925050606085015160ff811681146200039857600080fd5b939692955090935050565b60008219821115620003c557634e487b7160e01b600052601160045260246000fd5b500190565b600181811c90821680620003df57607f821691505b602082108114156200040157634e487b7160e01b600052602260045260246000fd5b50919050565b61091e80620004176000396000f3fe608060405234801561001057600080fd5b50600436106100a95760003560e01c80633950935111610071578063395093511461012d57806370a082311461014057806395d89b4114610169578063a457c2d714610171578063a9059cbb14610184578063dd62ed3e1461019757600080fd5b806306fdde03146100ae578063095ea7b3146100cc57806318160ddd146100ef57806323b872dd14610105578063313ce56714610118575b600080fd5b6100b66101d0565b6040516100c3919061073c565b60405180910390f35b6100df6100da3660046107ad565b610262565b60405190151581526020016100c3565b6100f7610278565b6040519081526020016100c3565b6100df6101133660046107d7565b6102a9565b60055460405160ff90911681526020016100c3565b6100df61013b3660046107ad565b610358565b6100f761014e366004610813565b6001600160a01b031660009081526020819052604090205490565b6100b6610394565b6100df61017f3660046107ad565b6103a3565b6100df6101923660046107ad565b61043c565b6100f76101a5366004610835565b6001600160a01b03918216600090815260016020908152604080832093909416825291909152205490565b6060600380546101df90610868565b80601f016020809104026020016040519081016040528092919081815260200182805461020b90610868565b80156102585780601f1061022d57610100808354040283529160200191610258565b820191906000526020600020905b81548152906001019060200180831161023b57829003601f168201915b5050505050905090565b600061026f338484610449565b50600192915050565b60055461010090046001600160a01b03166000908152602081905260408120546102a4906000196108b9565b905090565b60006102b684848461056d565b6001600160a01b0384166000908152600160209081526040808320338452909152902054828110156103405760405162461bcd60e51b815260206004820152602860248201527f45524332303a207472616e7366657220616d6f756e74206578636565647320616044820152676c6c6f77616e636560c01b60648201526084015b60405180910390fd5b61034d8533858403610449565b506001949350505050565b3360008181526001602090815260408083206001600160a01b0387168452909152812054909161026f91859061038f9086906108d0565b610449565b6060600480546101df90610868565b3360009081526001602090815260408083206001600160a01b0386168452909152812054828110156104255760405162461bcd60e51b815260206004820152602560248201527f45524332303a2064656372656173656420616c6c6f77616e63652062656c6f77604482015264207a65726f60d81b6064820152608401610337565b6104323385858403610449565b5060019392505050565b600061026f33848461056d565b6001600160a01b0383166104ab5760405162461bcd60e51b8152602060048201526024808201527f45524332303a20617070726f76652066726f6d20746865207a65726f206164646044820152637265737360e01b6064820152608401610337565b6001600160a01b03821661050c5760405162461bcd60e51b815260206004820152602260248201527f45524332303a20617070726f766520746f20746865207a65726f206164647265604482015261737360f01b6064820152608401610337565b6001600160a01b0383811660008181526001602090815260408083209487168084529482529182902085905590518481527f8c5be1e5ebec7d5bd14f71427d1e84f3dd0314c0f7b2291e5b200ac8c7c3b925910160405180910390a3505050565b6001600160a01b0383166105d15760405162461bcd60e51b815260206004820152602560248201527f45524332303a207472616e736665722066726f6d20746865207a65726f206164604482015264647265737360d81b6064820152608401610337565b6001600160a01b0382166106335760405162461bcd60e51b815260206004820152602360248201527f45524332303a207472616e7366657220746f20746865207a65726f206164647260448201526265737360e81b6064820152608401610337565b6001600160a01b038316600090815260208190526040902054818110156106ab5760405162461bcd60e51b815260206004820152602660248201527f45524332303a207472616e7366657220616d6f756e7420657863656564732062604482015265616c616e636560d01b6064820152608401610337565b6001600160a01b038085166000908152602081905260408082208585039055918516815290812080548492906106e29084906108d0565b92505081905550826001600160a01b0316846001600160a01b03167fddf252ad1be2c89b69c2b068fc378daa952ba7f163c4a11628f55a4df523b3ef8460405161072e91815260200190565b60405180910390a350505050565b600060208083528351808285015260005b818110156107695785810183015185820160400152820161074d565b8181111561077b576000604083870101525b50601f01601f1916929092016040019392505050565b80356001600160a01b03811681146107a857600080fd5b919050565b600080604083850312156107c057600080fd5b6107c983610791565b946020939093013593505050565b6000806000606084860312156107ec57600080fd5b6107f584610791565b925061080360208501610791565b9150604084013590509250925092565b60006020828403121561082557600080fd5b61082e82610791565b9392505050565b6000806040838503121561084857600080fd5b61085183610791565b915061085f60208401610791565b90509250929050565b600181811c9082168061087c57607f821691505b6020821081141561089d57634e487b7160e01b600052602260045260246000fd5b50919050565b634e487b7160e01b600052601160045260246000fd5b6000828210156108cb576108cb6108a3565b500390565b600082198211156108e3576108e36108a3565b50019056fea2646970667358221220901592642e674c68e5613c72abb065b629c5fe19b4facfcc20ca37857f4daabf64736f6c634300080a0033a2646970667358221220cc8f1ad280b5155a81927bb69cc82da27fceb8ebeeb42ef1e29cc20751d965cc64736f6c634300080a0033",
  "linkReferences": {},
  "deployedLinkReferences": {}
}