{
  "_format": "hh-sol-artifact-1",
  "contractName": "MockCrossCollateralRoutingFee",
  "sourceName": "contracts/MockCrossCollateralRoutingFee.sol",
  "abi": [
    {
      "inputs": [
        {
          "internalType": "address",
          "name": "_owner",
          "type": "address"
        }
      ],
      "stateMutability": "nonpayable",
      "type": "constructor"
    },
    {
      "inputs": [],
      "name": "DEFAULT_ROUTER",
      "outputs": [
        {
          "internalType": "bytes32",
          "name": "",
          "type": "bytes32"
        }
      ],
      "stateMutability": "view",
      "type": "function"
    },
    {
      "inputs": [
        {
          "internalType": "uint32",
          "name": "destination",
          "type": "uint32"
        },
        {
          "internalType": "bytes32",
          "name": "router",
          "type": "bytes32"
        }
      ],
      "name": "feeContracts",
      "outputs": [
        {
          "internalType": "address",
          "name": "feeContract",
          "type": "address"
        }
      ],
      "stateMutability": "view",
      "type": "function"
    },
    {
      "inputs": [],
      "name": "feeType",
      "outputs": [
        {
          "internalType": "enum MockCrossCollateralRoutingFee.FeeType",
          "name": "",
          "type": "uint8"
        }
      ],
      "stateMutability": "pure",
      "type": "function"
    },
    {
      "inputs": [],
      "name": "owner",
      "outputs": [
        {
          "internalType": "address",
          "name": "",
          "type": "address"
        }
      ],
      "stateMutability": "view",
      "type": "function"
    },
    {
      "inputs": [
        {
          "internalType": "uint32[]",
          "name": "_destinations",
          "type": "uint32[]"
        },
        {
          "internalType": "bytes32[]",
          "name": "_routers",
          "type": "bytes32[]"
        },
        {
          "internalType": "address[]",
          "name": "_feeContracts",
          "type": "address[]"
        }
      ],
      "name": "setCrossCollateralRouterFeeContracts",
      "outputs": [],
      "stateMutability": "nonpayable",
      "type": "function"
    }
  ],
  "bytecode": "0x608060405234801561001057600080fd5b506040516105af3803806105af83398101604081905261002f91610054565b600080546001600160a01b0319166001600160a01b0392909216919091179055610084565b60006020828403121561006657600080fd5b81516001600160a01b038116811461007d57600080fd5b9392505050565b61051c806100936000396000f3fe608060405234801561001057600080fd5b50600436106100675760003560e01c8063cb896fba11610050578063cb896fba146100cb578063f7d6fa8c14610135578063fb8dc1791461017657600080fd5b806348d676e11461006c5780638da5cb5b14610081575b600080fd5b61007f61007a366004610341565b610185565b005b6000546100a19073ffffffffffffffffffffffffffffffffffffffff1681565b60405173ffffffffffffffffffffffffffffffffffffffff90911681526020015b60405180910390f35b60408051808201909152601981527f526f7574696e674665652e44454641554c545f524f55544552000000000000006020909101526101277f6e086cd647d6eb8b516856666e2c1465fb8a6a58d3a75938362acc674eacaf4781565b6040519081526020016100c2565b6100a16101433660046103f4565b600160209081526000928352604080842090915290825290205473ffffffffffffffffffffffffffffffffffffffff1681565b60056040516100c2919061041e565b848314801561019357508281145b6101fd576040517f08c379a000000000000000000000000000000000000000000000000000000000815260206004820152600f60248201527f6c656e677468206d69736d617463680000000000000000000000000000000000604482015260640160405180910390fd5b60005b858110156102ec5782828281811061021a5761021a61045f565b905060200201602081019061022f919061048e565b600160008989858181106102455761024561045f565b905060200201602081019061025a91906104cb565b63ffffffff1663ffffffff16815260200190815260200160002060008787858181106102885761028861045f565b6020908102929092013583525081019190915260400160002080547fffffffffffffffffffffffff00000000000000000000000000000000000000001673ffffffffffffffffffffffffffffffffffffffff92909216919091179055600101610200565b50505050505050565b60008083601f84011261030757600080fd5b50813567ffffffffffffffff81111561031f57600080fd5b6020830191508360208260051b850101111561033a57600080fd5b9250929050565b6000806000806000806060878903121561035a57600080fd5b863567ffffffffffffffff8082111561037257600080fd5b61037e8a838b016102f5565b9098509650602089013591508082111561039757600080fd5b6103a38a838b016102f5565b909650945060408901359150808211156103bc57600080fd5b506103c989828a016102f5565b979a9699509497509295939492505050565b803563ffffffff811681146103ef57600080fd5b919050565b6000806040838503121561040757600080fd5b610410836103db565b946020939093013593505050565b6020810160068310610459577f4e487b7100000000000000000000000000000000000000000000000000000000600052602160045260246000fd5b91905290565b7f4e487b7100000000000000000000000000000000000000000000000000000000600052603260045260246000fd5b6000602082840312156104a057600080fd5b813573ffffffffffffffffffffffffffffffffffffffff811681146104c457600080fd5b9392505050565b6000602082840312156104dd57600080fd5b6104c4826103db56fea26469706673582212209f16926c363eb8caa193dee42c867a4b9174452301640b19f5283155125c6dbf64736f6c63430008160033",
  "linkReferences": {},
  "deployedLinkReferences": {}
}