{
  "contracts/MockCrossCollateralRoutingFee.sol": {
    "MockCrossCollateralRoutingFee": {
      "abi": [
        {
          "inputs": [
            {
              "internalType": "address",
              "name": "_owner",
              "type": "address"
            }
          ],
          "stateMutability": "nonpayable",
          "type": "constructor"
        },
        {
          "inputs": [],
          "name": "DEFAULT_ROUTER",
          "outputs": [
            {
              "internalType": "bytes32",
              "name": "",
              "type": "bytes32"
            }
          ],
          "stateMutability": "view",
          "type": "function"
        },
        {
          "inputs": [
            {
              "internalType": "uint32",
              "name": "destination",
              "type": "uint32"
            },
            {
              "internalType": "bytes32",
              "name": "router",
              "type": "bytes32"
            }
          ],
          "name": "feeContracts",
          "outputs": [
            {
              "internalType": "address",
              "name": "feeContract",
              "type": "address"
            }
          ],
          "stateMutability": "view",
          "type": "function"
        },
        {
          "inputs": [],
          "name": "feeType",
          "outputs": [
            {
              "internalType": "enum MockCrossCollateralRoutingFee.FeeType",
              "name": "",
              "type": "uint8"
            }
          ],
          "stateMutability": "pure",
          "type": "function"
        },
        {
          "inputs": [],
          "name": "owner",
          "outputs": [
            {
              "internalType": "address",
              "name": "",
              "type": "address"
            }
          ],
          "stateMutability": "view",
          "type": "function"
        },
        {
          "inputs": [
            {
              "internalType": "uint32[]",
              "name": "_destinations",
              "type": "uint32[]"
            },
            {
              "internalType": "bytes32[]",
              "name": "_routers",
              "type": "bytes32[]"
            },
            {
              "internalType": "address[]",
              "name": "_feeContracts",
              "type": "address[]"
            }
          ],
          "name": "setCrossCollateralRouterFeeContracts",
          "outputs": [],
          "stateMutability": "nonpayable",
          "type": "function"
        }
      ],
      "evm": {
        "bytecode": {
          "linkReferences": {},
          "object": "608060405234801561001057600080fd5b506040516105af3803806105af83398101604081905261002f91610054565b600080546001600160a01b0319166001600160a01b0392909216919091179055610084565b60006020828403121561006657600080fd5b81516001600160a01b038116811461007d57600080fd5b9392505050565b61051c806100936000396000f3fe608060405234801561001057600080fd5b50600436106100675760003560e01c8063cb896fba11610050578063cb896fba146100cb578063f7d6fa8c14610135578063fb8dc1791461017657600080fd5b806348d676e11461006c5780638da5cb5b14610081575b600080fd5b61007f61007a366004610341565b610185565b005b6000546100a19073ffffffffffffffffffffffffffffffffffffffff1681565b60405173ffffffffffffffffffffffffffffffffffffffff90911681526020015b60405180910390f35b60408051808201909152601981527f526f7574696e674665652e44454641554c545f524f55544552000000000000006020909101526101277f6e086cd647d6eb8b516856666e2c1465fb8a6a58d3a75938362acc674eacaf4781565b6040519081526020016100c2565b6100a16101433660046103f4565b600160209081526000928352604080842090915290825290205473ffffffffffffffffffffffffffffffffffffffff1681565b60056040516100c2919061041e565b848314801561019357508281145b6101fd576040517f08c379a000000000000000000000000000000000000000000000000000000000815260206004820152600f60248201527f6c656e677468206d69736d617463680000000000000000000000000000000000604482015260640160405180910390fd5b60005b858110156102ec5782828281811061021a5761021a61045f565b905060200201602081019061022f919061048e565b600160008989858181106102455761024561045f565b905060200201602081019061025a91906104cb565b63ffffffff1663ffffffff16815260200190815260200160002060008787858181106102885761028861045f565b6020908102929092013583525081019190915260400160002080547fffffffffffffffffffffffff00000000000000000000000000000000000000001673ffffffffffffffffffffffffffffffffffffffff92909216919091179055600101610200565b50505050505050565b60008083601f84011261030757600080fd5b50813567ffffffffffffffff81111561031f57600080fd5b6020830191508360208260051b850101111561033a57600080fd5b9250929050565b6000806000806000806060878903121561035a57600080fd5b863567ffffffffffffffff8082111561037257600080fd5b61037e8a838b016102f5565b9098509650602089013591508082111561039757600080fd5b6103a38a838b016102f5565b909650945060408901359150808211156103bc57600080fd5b506103c989828a016102f5565b979a9699509497509295939492505050565b803563ffffffff811681146103ef57600080fd5b919050565b6000806040838503121561040757600080fd5b610410836103db565b946020939093013593505050565b6020810160068310610459577f4e487b7100000000000000000000000000000000000000000000000000000000600052602160045260246000fd5b91905290565b7f4e487b7100000000000000000000000000000000000000000000000000000000600052603260045260246000fd5b6000602082840312156104a057600080fd5b813573ffffffffffffffffffffffffffffffffffffffff811681146104c457600080fd5b9392505050565b6000602082840312156104dd57600080fd5b6104c4826103db56fea26469706673582212209f16926c363eb8caa193dee42c867a4b9174452301640b19f5283155125c6dbf64736f6c63430008160033",
          "opcodes": "PUSH1 0x80 PUSH1 0x40 MSTORE CALLVALUE DUP1 ISZERO PUSH2 0x10 JUMPI PUSH1 0x0 DUP1 REVERT JUMPDEST POP PUSH1 0x40 MLOAD PUSH2 0x5AF CODESIZE SUB DUP1 PUSH2 0x5AF DUP4 CODECOPY DUP2 ADD PUSH1 0x40 DUP2 SWAP1 MSTORE PUSH2 0x2F SWAP2 PUSH2 0x54 JUMP JUMPDEST PUSH1 0x0 DUP1 SLOAD PUSH1 0x1 PUSH1 0x1 PUSH1 0xA0 SHL SUB NOT AND PUSH1 0x1 PUSH1 0x1 PUSH1 0xA0 SHL SUB SWAP3 SWAP1 SWAP3 AND SWAP2 SWAP1 SWAP2 OR SWAP1 SSTORE PUSH2 0x84 JUMP JUMPDEST PUSH1 0x0 PUSH1 0x20 DUP3 DUP5 SUB SLT ISZERO PUSH2 0x66 JUMPI PUSH1 0x0 DUP1 REVERT JUMPDEST DUP2 MLOAD PUSH1 0x1 PUSH1 0x1 PUSH1 0xA0 SHL SUB DUP2 AND DUP2 EQ PUSH2 0x7D JUMPI PUSH1 0x0 DUP1 REVERT JUMPDEST SWAP4 SWAP3 POP POP POP JUMP JUMPDEST PUSH2 0x51C DUP1 PUSH2 0x93 PUSH1 0x0 CODECOPY PUSH1 0x0 RETURN INVALID PUSH1 0x80 PUSH1 0x40 MSTORE CALLVALUE DUP1 ISZERO PUSH2 0x10 JUMPI PUSH1 0x0 DUP1 REVERT JUMPDEST POP PUSH1 0x4 CALLDATASIZE LT PUSH2 0x67 JUMPI PUSH1 0x0 CALLDATALOAD PUSH1 0xE0 SHR DUP1 PUSH4 0xCB896FBA GT PUSH2 0x50 JUMPI DUP1 PUSH4 0xCB896FBA EQ PUSH2 0xCB JUMPI DUP1 PUSH4 0xF7D6FA8C EQ PUSH2 0x135 JUMPI DUP1 PUSH4 0xFB8DC179 EQ PUSH2 0x176 JUMPI PUSH1 0x0 DUP1 REVERT JUMPDEST DUP1 PUSH4 0x48D676E1 EQ PUSH2 0x6C JUMPI DUP1 PUSH4 0x8DA5CB5B EQ PUSH2 0x81 JUMPI JUMPDEST PUSH1 0x0 DUP1 REVERT JUMPDEST PUSH2 0x7F PUSH2 0x7A CALLDATASIZE PUSH1 0x4 PUSH2 0x341 JUMP JUMPDEST PUSH2 0x185 JUMP JUMPDEST STOP JUMPDEST PUSH1 0x0 SLOAD PUSH2 0xA1 SWAP1 PUSH20 0xFFFFFFFFFFFFFFFFFFFFFFFFFFFFFFFFFFFFFFFF AND DUP2 JUMP JUMPDEST PUSH1 0x40 MLOAD PUSH20 0xFFFFFFFFFFFFFFFFFFFFFFFFFFFFFFFFFFFFFFFF SWAP1 SWAP2 AND DUP2 MSTORE PUSH1 0x20 ADD JUMPDEST PUSH1 0x40 MLOAD DUP1 SWAP2 SUB SWAP1 RETURN JUMPDEST PUSH1 0x40 DUP1 MLOAD DUP1 DUP3 ADD SWAP1 SWAP2 MSTORE PUSH1 0x19 DUP2 MSTORE PUSH32 0x526F7574696E674665652E44454641554C545F524F5554455200000000000000 PUSH1 0x20 SWAP1 SWAP2 ADD MSTORE PUSH2 0x127 PUSH32 0x6E086CD647D6EB8B516856666E2C1465FB8A6A58D3A75938362ACC674EACAF47 DUP2 JUMP JUMPDEST PUSH1 0x40 MLOAD SWAP1 DUP2 MSTORE PUSH1 0x20 ADD PUSH2 0xC2 JUMP JUMPDEST PUSH2 0xA1 PUSH2 0x143 CALLDATASIZE PUSH1 0x4 PUSH2 0x3F4 JUMP JUMPDEST PUSH1 0x1 PUSH1 0x20 SWAP1 DUP2 MSTORE PUSH1 0x0 SWAP3 DUP4 MSTORE PUSH1 0x40 DUP1 DUP5 KECCAK256 SWAP1 SWAP2 MSTORE SWAP1 DUP3 MSTORE SWAP1 KECCAK256 SLOAD PUSH20 0xFFFFFFFFFFFFFFFFFFFFFFFFFFFFFFFFFFFFFFFF AND DUP2 JUMP JUMPDEST PUSH1 0x5 PUSH1 0x40 MLOAD PUSH2 0xC2 SWAP2 SWAP1 PUSH2 0x41E JUMP JUMPDEST DUP5 DUP4 EQ DUP1 ISZERO PUSH2 0x193 JUMPI POP DUP3 DUP2 EQ JUMPDEST PUSH2 0x1FD JUMPI PUSH1 0x40 MLOAD PUSH32 0x8C379A000000000000000000000000000000000000000000000000000000000 DUP2 MSTORE PUSH1 0x20 PUSH1 0x4 DUP3 ADD MSTORE PUSH1 0xF PUSH1 0x24 DUP3 ADD MSTORE PUSH32 0x6C656E677468206D69736D617463680000000000000000000000000000000000 PUSH1 0x44 DUP3 ADD MSTORE PUSH1 0x64 ADD PUSH1 0x40 MLOAD DUP1 SWAP2 SUB SWAP1 REVERT JUMPDEST PUSH1 0x0 JUMPDEST DUP6 DUP2 LT ISZERO PUSH2 0x2EC JUMPI DUP3 DUP3 DUP3 DUP2 DUP2 LT PUSH2 0x21A JUMPI PUSH2 0x21A PUSH2 0x45F JUMP JUMPDEST SWAP1 POP PUSH1 0x20 MUL ADD PUSH1 0x20 DUP2 ADD SWAP1 PUSH2 0x22F SWAP2 SWAP1 PUSH2 0x48E JUMP JUMPDEST PUSH1 0x1 PUSH1 0x0 DUP10 DUP10 DUP6 DUP2 DUP2 LT PUSH2 0x245 JUMPI PUSH2 0x245 PUSH2 0x45F JUMP JUMPDEST SWAP1 POP PUSH1 0x20 MUL ADD PUSH1 0x20 DUP2 ADD SWAP1 PUSH2 0x25A SWAP2 SWAP1 PUSH2 0x4CB JUMP JUMPDEST PUSH4 0xFFFFFFFF AND PUSH4 0xFFFFFFFF AND DUP2 MSTORE PUSH1 0x20 ADD SWAP1 DUP2 MSTORE PUSH1 0x20 ADD PUSH1 0x0 KECCAK256 PUSH1 0x0 DUP8 DUP8 DUP6 DUP2 DUP2 LT PUSH2 0x288 JUMPI PUSH2 0x288 PUSH2 0x45F JUMP JUMPDEST PUSH1 0x20 SWAP1 DUP2 MUL SWAP3 SWAP1 SWAP3 ADD CALLDATALOAD DUP4 MSTORE POP DUP2 ADD SWAP2 SWAP1 SWAP2 MSTORE PUSH1 0x40 ADD PUSH1 0x0 KECCAK256 DUP1 SLOAD PUSH32 0xFFFFFFFFFFFFFFFFFFFFFFFF0000000000000000000000000000000000000000 AND PUSH20 0xFFFFFFFFFFFFFFFFFFFFFFFFFFFFFFFFFFFFFFFF SWAP3 SWAP1 SWAP3 AND SWAP2 SWAP1 SWAP2 OR SWAP1 SSTORE PUSH1 0x1 ADD PUSH2 0x200 JUMP JUMPDEST POP POP POP POP POP POP POP JUMP JUMPDEST PUSH1 0x0 DUP1 DUP4 PUSH1 0x1F DUP5 ADD SLT PUSH2 0x307 JUMPI PUSH1 0x0 DUP1 REVERT JUMPDEST POP DUP2 CALLDATALOAD PUSH8 0xFFFFFFFFFFFFFFFF DUP2 GT ISZERO PUSH2 0x31F JUMPI PUSH1 0x0 DUP1 REVERT JUMPDEST PUSH1 0x20 DUP4 ADD SWAP2 POP DUP4 PUSH1 0x20 DUP3 PUSH1 0x5 SHL DUP6 ADD ADD GT ISZERO PUSH2 0x33A JUMPI PUSH1 0x0 DUP1 REVERT JUMPDEST SWAP3 POP SWAP3 SWAP1 POP JUMP JUMPDEST PUSH1 0x0 DUP1 PUSH1 0x0 DUP1 PUSH1 0x0 DUP1 PUSH1 0x60 DUP8 DUP10 SUB SLT ISZERO PUSH2 0x35A JUMPI PUSH1 0x0 DUP1 REVERT JUMPDEST DUP7 CALLDATALOAD PUSH8 0xFFFFFFFFFFFFFFFF DUP1 DUP3 GT ISZERO PUSH2 0x372 JUMPI PUSH1 0x0 DUP1 REVERT JUMPDEST PUSH2 0x37E DUP11 DUP4 DUP12 ADD PUSH2 0x2F5 JUMP JUMPDEST SWAP1 SWAP9 POP SWAP7 POP PUSH1 0x20 DUP10 ADD CALLDATALOAD SWAP2 POP DUP1 DUP3 GT ISZERO PUSH2 0x397 JUMPI PUSH1 0x0 DUP1 REVERT JUMPDEST PUSH2 0x3A3 DUP11 DUP4 DUP12 ADD PUSH2 0x2F5 JUMP JUMPDEST SWAP1 SWAP7 POP SWAP5 POP PUSH1 0x40 DUP10 ADD CALLDATALOAD SWAP2 POP DUP1 DUP3 GT ISZERO PUSH2 0x3BC JUMPI PUSH1 0x0 DUP1 REVERT JUMPDEST POP PUSH2 0x3C9 DUP10 DUP3 DUP11 ADD PUSH2 0x2F5 JUMP JUMPDEST SWAP8 SWAP11 SWAP7 SWAP10 POP SWAP5 SWAP8 POP SWAP3 SWAP6 SWAP4 SWAP5 SWAP3 POP POP POP JUMP JUMPDEST DUP1 CALLDATALOAD PUSH4 0xFFFFFFFF DUP2 AND DUP2 EQ PUSH2 0x3EF JUMPI PUSH1 0x0 DUP1 REVERT JUMPDEST SWAP2 SWAP1 POP JUMP JUMPDEST PUSH1 0x0 DUP1 PUSH1 0x40 DUP4 DUP6 SUB SLT ISZERO PUSH2 0x407 JUMPI PUSH1 0x0 DUP1 REVERT JUMPDEST PUSH2 0x410 DUP4 PUSH2 0x3DB JUMP JUMPDEST SWAP5 PUSH1 0x20 SWAP4 SWAP1 SWAP4 ADD CALLDATALOAD SWAP4 POP POP POP JUMP JUMPDEST PUSH1 0x20 DUP2 ADD PUSH1 0x6 DUP4 LT PUSH2 0x459 JUMPI PUSH32 0x4E487B7100000000000000000000000000000000000000000000000000000000 PUSH1 0x0 MSTORE PUSH1 0x21 PUSH1 0x4 MSTORE PUSH1 0x24 PUSH1 0x0 REVERT JUMPDEST SWAP2 SWAP1 MSTORE SWAP1 JUMP JUMPDEST PUSH32 0x4E487B7100000000000000000000000000000000000000000000000000000000 PUSH1 0x0 MSTORE PUSH1 0x32 PUSH1 0x4 MSTORE PUSH1 0x24 PUSH1 0x0 REVERT JUMPDEST PUSH1 0x0 PUSH1 0x20 DUP3 DUP5 SUB SLT ISZERO PUSH2 0x4A0 JUMPI PUSH1 0x0 DUP1 REVERT JUMPDEST DUP2 CALLDATALOAD PUSH20 0xFFFFFFFFFFFFFFFFFFFFFFFFFFFFFFFFFFFFFFFF DUP2 AND DUP2 EQ PUSH2 0x4C4 JUMPI PUSH1 0x0 DUP1 REVERT JUMPDEST SWAP4 SWAP3 POP POP POP JUMP JUMPDEST PUSH1 0x0 PUSH1 0x20 DUP3 DUP5 SUB SLT ISZERO PUSH2 0x4DD JUMPI PUSH1 0x0 DUP1 REVERT JUMPDEST PUSH2 0x4C4 DUP3 PUSH2 0x3DB JUMP INVALID LOG2 PUSH5 0x6970667358 0x22 SLT KECCAK256 SWAP16 AND SWAP3 PUSH13 0x363EB8CAA193DEE42C867A4B91 PUSH21 0x452301640B19F5283155125C6DBF64736F6C634300 ADDMOD AND STOP CALLER "
        },
        "methodIdentifiers": {
          "DEFAULT_ROUTER()": "cb896fba",
          "feeContracts(uint32,bytes32)": "f7d6fa8c",
          "feeType()": "fb8dc179",
          "owner()": "8da5cb5b",
          "setCrossCollateralRouterFeeContracts(uint32[],bytes32[],address[])": "48d676e1"
        }
      }
    }
  }
}