{
  "contractName": "StorageGasOracle",
  "abi": [
    {
      "anonymous": false,
      "inputs": [
        {
          "indexed": true,
          "internalType": "address",
          "name": "previousOwner",
          "type": "address"
        },
        {
          "indexed": true,
          "internalType": "address",
          "name": "newOwner",
          "type": "address"
        }
      ],
      "name": "OwnershipTransferred",
      "type": "event"
    },
    {
      "anonymous": false,
      "inputs": [
        {
          "indexed": true,
          "internalType": "uint32",
          "name": "remoteDomain",
          "type": "uint32"
        },
        {
          "indexed": false,
          "internalType": "uint128",
          "name": "tokenExchangeRate",
          "type": "uint128"
        },
        {
          "indexed": false,
          "internalType": "uint128",
          "name": "gasPrice",
          "type": "uint128"
        }
      ],
      "name": "RemoteGasDataSet",
      "type": "event"
    },
    {
      "inputs": [],
      "name": "PACKAGE_VERSION",
      "outputs": [
        {
          "internalType": "string",
          "name": "",
          "type": "string"
        }
      ],
      "stateMutability": "view",
      "type": "function"
    },
    {
      "inputs": [
        {
          "internalType": "uint32",
          "name": "_destinationDomain",
          "type": "uint32"
        }
      ],
      "name": "getExchangeRateAndGasPrice",
      "outputs": [
        {
          "internalType": "uint128",
          "name": "tokenExchangeRate",
          "type": "uint128"
        },
        {
          "internalType": "uint128",
          "name": "gasPrice",
          "type": "uint128"
        }
      ],
      "stateMutability": "view",
      "type": "function"
    },
    {
      "inputs": [],
      "name": "owner",
      "outputs": [
        {
          "internalType": "address",
          "name": "",
          "type": "address"
        }
      ],
      "stateMutability": "view",
      "type": "function"
    },
    {
      "inputs": [
        {
          "internalType": "uint32",
          "name": "remoteDomain",
          "type": "uint32"
        }
      ],
      "name": "remoteGasData",
      "outputs": [
        {
          "internalType": "uint128",
          "name": "tokenExchangeRate",
          "type": "uint128"
        },
        {
          "internalType": "uint128",
          "name": "gasPrice",
          "type": "uint128"
        }
      ],
      "stateMutability": "view",
      "type": "function"
    },
    {
      "inputs": [],
      "name": "renounceOwnership",
      "outputs": [],
      "stateMutability": "nonpayable",
      "type": "function"
    },
    {
      "inputs": [
        {
          "components": [
            {
              "internalType": "uint32",
              "name": "remoteDomain",
              "type": "uint32"
            },
            {
              "internalType": "uint128",
              "name": "tokenExchangeRate",
              "type": "uint128"
            },
            {
              "internalType": "uint128",
              "name": "gasPrice",
              "type": "uint128"
            }
          ],
          "internalType": "struct StorageGasOracle.RemoteGasDataConfig",
          "name": "_config",
          "type": "tuple"
        }
      ],
      "name": "setRemoteGasData",
      "outputs": [],
      "stateMutability": "nonpayable",
      "type": "function"
    },
    {
      "inputs": [
        {
          "components": [
            {
              "internalType": "uint32",
              "name": "remoteDomain",
              "type": "uint32"
            },
            {
              "internalType": "uint128",
              "name": "tokenExchangeRate",
              "type": "uint128"
            },
            {
              "internalType": "uint128",
              "name": "gasPrice",
              "type": "uint128"
            }
          ],
          "internalType": "struct StorageGasOracle.RemoteGasDataConfig[]",
          "name": "_configs",
          "type": "tuple[]"
        }
      ],
      "name": "setRemoteGasDataConfigs",
      "outputs": [],
      "stateMutability": "nonpayable",
      "type": "function"
    },
    {
      "inputs": [
        {
          "internalType": "address",
          "name": "newOwner",
          "type": "address"
        }
      ],
      "name": "transferOwnership",
      "outputs": [],
      "stateMutability": "nonpayable",
      "type": "function"
    }
  ],
  "bytecode": "0x608060405234801561001057600080fd5b50d3801561001d57600080fd5b50d2801561002a57600080fd5b5061003433610039565b610089565b600080546001600160a01b038381166001600160a01b0319831681178455604051919092169283917f8be0079c531659141344cd1fd0a4f28419497f9722a3daafe3b4186f6b6457e09190a35050565b6106e7806100986000396000f3fe608060405234801561001057600080fd5b50d3801561001d57600080fd5b50d2801561002a57600080fd5b50600436106100a25760003560e01c806393c448471161007557806393c4484714610180578063b08e56d0146101c9578063f2fde38b14610213578063f3a1495f1461022657600080fd5b806360fcef7c146100a7578063698faffc1461013b578063715018a6146101505780638da5cb5b14610158575b600080fd5b61010d6100b53660046104d5565b63ffffffff166000908152600160209081526040918290208251808401909352546fffffffffffffffffffffffffffffffff808216808552700100000000000000000000000000000000909204169290910182905291565b604080516fffffffffffffffffffffffffffffffff9384168152929091166020830152015b60405180910390f35b61014e610149366004610502565b610239565b005b61014e61027b565b60005460405173ffffffffffffffffffffffffffffffffffffffff9091168152602001610132565b6101bc6040518060400160405280600681526020017f31302e312e33000000000000000000000000000000000000000000000000000081525081565b6040516101329190610577565b61010d6101d73660046104d5565b6001602052600090815260409020546fffffffffffffffffffffffffffffffff8082169170010000000000000000000000000000000090041682565b61014e6102213660046105e4565b61028f565b61014e610234366004610638565b61034b565b61024161035c565b8060005b818110156102755761026d84848381811061026257610262610650565b9050606002016103dd565b600101610245565b50505050565b61028361035c565b61028d6000610460565b565b61029761035c565b73ffffffffffffffffffffffffffffffffffffffff811661033f576040517f08c379a000000000000000000000000000000000000000000000000000000000815260206004820152602660248201527f4f776e61626c653a206e6577206f776e657220697320746865207a65726f206160448201527f646472657373000000000000000000000000000000000000000000000000000060648201526084015b60405180910390fd5b61034881610460565b50565b61035361035c565b610348816103dd565b60005473ffffffffffffffffffffffffffffffffffffffff16331461028d576040517f08c379a000000000000000000000000000000000000000000000000000000000815260206004820181905260248201527f4f776e61626c653a2063616c6c6572206973206e6f7420746865206f776e65726044820152606401610336565b6103ea60208201826104d5565b63ffffffff167fb48c1cb713397fc0c0649596c221270fec0b3de3f85ccf6a734411a2fe57a694610421604084016020850161067f565b610431606085016040860161067f565b604080516fffffffffffffffffffffffffffffffff93841681529290911660208301520160405180910390a250565b6000805473ffffffffffffffffffffffffffffffffffffffff8381167fffffffffffffffffffffffff0000000000000000000000000000000000000000831681178455604051919092169283917f8be0079c531659141344cd1fd0a4f28419497f9722a3daafe3b4186f6b6457e09190a35050565b6000602082840312156104e757600080fd5b813563ffffffff811681146104fb57600080fd5b9392505050565b6000806020838503121561051557600080fd5b823567ffffffffffffffff8082111561052d57600080fd5b818501915085601f83011261054157600080fd5b81358181111561055057600080fd5b86602060608302850101111561056557600080fd5b60209290920196919550909350505050565b60006020808352835180602085015260005b818110156105a557858101830151858201604001528201610589565b5060006040828601015260407fffffffffffffffffffffffffffffffffffffffffffffffffffffffffffffffe0601f8301168501019250505092915050565b6000602082840312156105f657600080fd5b813574ffffffffffffffffffffffffffffffffffffffffff8116811461061b57600080fd5b73ffffffffffffffffffffffffffffffffffffffff169392505050565b60006060828403121561064a57600080fd5b50919050565b7f4e487b7100000000000000000000000000000000000000000000000000000000600052603260045260246000fd5b60006020828403121561069157600080fd5b81356fffffffffffffffffffffffffffffffff811681146104fb57600080fdfea26474726f6e58221220bd61a1cd84343f9325efa9d7740396a2bc76cb0bbec6b3f8765c8ff559c333cd64736f6c63430008160033",
  "source": "// SPDX-License-Identifier: MIT OR Apache-2.0\npragma solidity >=0.8.0;\n\n// ============ Internal Imports ============\nimport {IGasOracle} from \"../../interfaces/IGasOracle.sol\";\nimport {PackageVersioned} from \"../../PackageVersioned.sol\";\n\n// ============ External Imports ============\nimport {Ownable} from \"@openzeppelin/contracts/access/Ownable.sol\";\n\n/**\n * @notice A gas oracle that uses data stored within the contract.\n * @dev This contract is intended to be owned by an address that will\n * update the stored remote gas data.\n */\ncontract StorageGasOracle is IGasOracle, Ownable, PackageVersioned {\n    // ============ Public Storage ============\n\n    /// @notice Keyed by remote domain, gas data on that remote domain.\n    mapping(uint32 remoteDomain => IGasOracle.RemoteGasData gasData)\n        public remoteGasData;\n\n    // ============ Events ============\n\n    /**\n     * @notice Emitted when an entry in `remoteGasData` is set.\n     * @param remoteDomain The remote domain in which the gas data was set for.\n     * @param tokenExchangeRate The exchange rate of the remote native token quoted in the local native token.\n     * @param gasPrice The gas price on the remote chain.\n     */\n    event RemoteGasDataSet(\n        uint32 indexed remoteDomain,\n        uint128 tokenExchangeRate,\n        uint128 gasPrice\n    );\n\n    struct RemoteGasDataConfig {\n        uint32 remoteDomain;\n        uint128 tokenExchangeRate;\n        uint128 gasPrice;\n    }\n\n    // ============ External Functions ============\n\n    /**\n     * @notice Returns the stored `remoteGasData` for the `_destinationDomain`.\n     * @param _destinationDomain The destination domain.\n     * @return tokenExchangeRate The exchange rate of the remote native token quoted in the local native token.\n     * @return gasPrice The gas price on the remote chain.\n     */\n    function getExchangeRateAndGasPrice(\n        uint32 _destinationDomain\n    )\n        external\n        view\n        override\n        returns (uint128 tokenExchangeRate, uint128 gasPrice)\n    {\n        // Intentionally allow unset / zero values\n        IGasOracle.RemoteGasData memory _data = remoteGasData[\n            _destinationDomain\n        ];\n        return (_data.tokenExchangeRate, _data.gasPrice);\n    }\n\n    /**\n     * @notice Sets the remote gas data for many remotes at a time.\n     * @param _configs The configs to use when setting the remote gas data.\n     */\n    function setRemoteGasDataConfigs(\n        RemoteGasDataConfig[] calldata _configs\n    ) external onlyOwner {\n        uint256 _len = _configs.length;\n        for (uint256 i = 0; i < _len; i++) {\n            _setRemoteGasData(_configs[i]);\n        }\n    }\n\n    /**\n     * @notice Sets the remote gas data using the values in `_config`.\n     * @param _config The config to use when setting the remote gas data.\n     */\n    function setRemoteGasData(\n        RemoteGasDataConfig calldata _config\n    ) external onlyOwner {\n        _setRemoteGasData(_config);\n    }\n\n    // ============ Internal functions ============\n\n    /**\n     * @notice Sets the remote gas data using the values in `_config`.\n     * @param _config The config to use when setting the remote gas data.\n     */\n    function _setRemoteGasData(RemoteGasDataConfig calldata _config) internal {\n        emit RemoteGasDataSet(\n            _config.remoteDomain,\n            _config.tokenExchangeRate,\n            _config.gasPrice\n        );\n    }\n}\n",
  "sourcePath": "/Users/troykessler/work/hyperlane/hyperlane-tron/contracts/hooks/igp/StorageGasOracle.sol",
  "compiler": {
    "name": "solc",
    "version": "0.8.22+commit.5ed3e10f.Emscripten.clang"
  },
  "schemaVersion": "2.0.1",
  "updatedAt": "2026-01-12T16:24:45.824Z"
}